:0200000460009A
:10000000464346420004015600000000010303007D
:1000100000000000000000000000000000000000E0
:1000200000000000000000000000000000000000D0
:1000300000000000000000000000000000000000C0
:1000400000000000000406000000000000000000A6
:100050000000800000000000000000000000000020
:100060000000000000000000000000000000000090
:100070000000000000000000000000000000000080
:10008000EB04180A063204260000000000000000FD
:100090000000000000000000000000000000000060
:1000A0000000000000000000000000000000000050
:1000B0000000000000000000000000000000000040
:1000C0000000000000000000000000000000000030
:1000D0000000000000000000000000000000000020
:1000E0000000000000000000000000000000000010
:1000F0000000000000000000000000000000000000
:1001000000000000000000000000000000000000EF
:1001100000000000000000000000000000000000DF
:1001200000000000000000000000000000000000CF
:1001300000000000000000000000000000000000BF
:1001400000000000000000000000000000000000AF
:10015000000000000000000000000000000000009F
:10016000000000000000000000000000000000008F
:10017000000000000000000000000000000000007F
:10018000000000000000000000000000000000006F
:10019000000000000000000000000000000000005F
:1001A000000000000000000000000000000000004F
:1001B000000000000000000000000000000000003F
:1001C000000100000010000000000000000000001E
:1001D000000001000000000000000000000000001E
:1001E000000000000000000000000000000000000F
:1001F00000000000000000000000000000000000FF
:10020000FFFFFFFFFFFFFFFFFFFFFFFFFFFFFFFFFE
:10021000FFFFFFFFFFFFFFFFFFFFFFFFFFFFFFFFEE
:10100000D10020410020006000000000000000002E
:1010100020100060001000600000000000000000D0
:10102000000000600000800000000000FFFFFFFFE4
:10103000FFFFFFFFFFFFFFFFFFFFFFFFFFFFFFFFC0
:10104000FFFFFFFFFFFFFFFFFFFFFFFFFFFFFFFFB0
:10105000FFFFFFFFFFFFFFFFFFFFFFFFFFFFFFFFA0
:10106000FFFFFFFFFFFFFFFFFFFFFFFFFFFFFFFF90
:10200000000002200923006085230060BFB2006049
:10201000892300608B2300608D2300600000000096
:102020000000000000000000000000008F2300609E
:10203000912300600000000093230060952300605E
:10204000DFAD0060E7AD0060EFAD0060F7AD0060B0
:10205000FFAD006007AE00600FAE006017AE00601D
:102060001FAE006027AE00602FAE006037AE00608C
:102070003FAE006047AE00604FAE006057AE0060FC
:102080005FAE006067AE00606FAE006077AE00606C
:102090007FAE006087AE00608FAE006097AE0060DC
:1020A0009FAE0060A7AE0060AFAE0060B7AE00604C
:1020B000BFAE0060C7AE0060CFAE0060D7AE0060BC
:1020C000DFAE0060E7AE0060EFAE0060F7AE00602C
:1020D000FFAE006007AF00600FAF006017AF006099
:1020E0001FAF006027AF00602FAF006037AF006008
:1020F0003FAF006047AF00604FAF006057AF006078
:102100005FAF006067AF00606FAF006077AF0060E7
:102110007FAF006087AF00608FAF006097AF006057
:102120009FAF0060A7AF0060AFAF0060B7AF0060C7
:10213000BFAF0060C7AF0060CFAF0060D7AF006037
:10214000DFAF0060E7AF0060EFAF0060F7AF0060A7
:10215000FFAF006007B000600FB0006017B0006014
:102160001FB0006027B000602FB0006037B0006083
:102170003FB0006047B000604FB0006057B00060F3
:102180005FB0006067B000606FB0006077B0006063
:102190007FB0006087B000608FB0006097B00060D3
:1021A0009FB00060A7B00060AFB00060B7B0006043
:1021B000BFB00060C7B00060CFB00060D7B00060B3
:1021C000DFB00060E7B00060EFB00060F7B0006023
:1021D000FFB0006007B100600FB1006017B1006090
:1021E0001FB1006027B100602FB1006037B10060FF
:1021F0003FB1006047B100604FB1006057B100606F
:10220000C5520060AD5200605FB1006067B1006010
:102210006FB1006077B100607FB1006087B100608E
:102220008FB1006097B100609FB10060A7B10060FE
:10223000AFB10060B7B10060BFB10060C7B100606E
:10224000CFB10060D7B10060DFB10060E7B10060DE
:10225000EFB10060F7B10060FFB1006007B200604D
:102260000FB2006017B200601FB2006027B20060BA
:102270002FB2006037B200603FB2006047B200602A
:102280004FB2006057B200605FB2006067B200609A
:102290006FB2006077B200607FB2006087B200600A
:1022A0008FB2006097B200609FB20060A7B200607A
:1022B000AFB20060B7B20060F4C800600000002058
:1022C00064010000F4C8006000000000000000008D
:1022D000F4C800600000202000000000F4C8006086
:1022E0000000E0810000000000080020A00C0000B9
:1022F000000000000000000000002020000000009E
:102300000000E0810000000010B572B604F06EFA23
:102310000D4B07E003F10C049A685968186800F047
:1023200019F82346094A9342F4D306E01C4659683B
:1023300054F8080B00F01DF82346054A9342F5D3E4
:1023400062B609F0EEF9FEE7B8220060E82200600C
:1023500008230060002393420AD210B450F8044BC3
:1023600041F8044B04339342F8D35DF8044B7047B3
:10237000704700238B4204D2002240F8042B043320
:10238000F8E77047FEE7FEE7FEE7FEE7FEE7FEE759
:10239000FEE7FEE7FEE7FEE780B582B000AF7860BB
:1023A0007968024800F0C2F800BEFDE7ACBC0060EE
:1023B00080B584B000AF786039607B68002B02D1B3
:1023C0001048FFF7E9FF3B68002B02D10E48FFF7EA
:1023D000E3FF0E4B1B68002B01D100230DE03A6890
:1023E00079680B4809F098F80346FB81FB89002BBC
:1023F00001D13B6801E04FF0FF3318461037BD466E
:1024000080BD00BFC0BC0060E8BC0060940E00202E
:102410008C0E002080B58CB000AFB9607B600346A5
:10242000FB731346BB730023FB857B687B61BB6832
:10243000BB6100233B7700237B77FB7BBB770123CA
:10244000FB77012387F82030BB7B87F82430BB7BE8
:10245000012B03D107F11403BB6217E0BB7B022BF6
:1024600003D143F22153FB8510E0BB7B032B03D147
:1024700043F22153FB8509E0BB7B042B03D143F2DC
:102480002153FB8502E043F22153FB85FB8D43F290
:102490002152934237D01C2200211D4809F048F9EF
:1024A0001B4B1B4A1A611A4B1B6907F12402114688
:1024B000184604F06FFB0346FB85FB8D002B02D012
:1024C0001448FFF769FF124B1B691349184604F0C3
:1024D0009BFB0346FB85FB8D002B02D00F48FFF7CB
:1024E0005BFF0B4B1B690E49184604F0BFFB03460C
:1024F000FB85FB8D002B02D00A48FFF74DFF044BF4
:102500001B69094A1360FB8D18463037BD4680BDF4
:10251000780E002010BD00608C0E002054BD0060BD
:10252000900E002098BD0060940E00200FB480B57E
:10253000A4B000AF0023C7F888300023C7F88C3060
:1025400000237B6007F108037C220021184609F074
:10255000EFF8124B1B68002B16D007F19C03C7F84D
:1025600084303A1D0E4BD7F88410D7F8980006F047
:1025700023FEC7F88800D7F888203B1D114618466F
:10258000FFF716FFC7F88C00D7F88C301846903745
:10259000BD46BDE8804004B0704700BF940E0020E7
:1025A000C18D006080B48DB000AF0346FB71002385
:1025B0007B620023BB62334A07F1140307CA83E836
:1025C0000700304A07F1080307CA83E80700FB79D0
:1025D000012B01D800234FE0FB79022B02D0FB79BD
:1025E000032B03D1FB79023BFB7112E0FB79062B35
:1025F00002D0FB79072B03D1FB79063BFB7108E086
:10260000FB790A2B02D0FB790B2B02D1FB790A3B19
:10261000FB710023FB621BE0FB6A9B0007F13002A9
:10262000134453F81C3C002B0FD0BA6A531CBB62F6
:10263000FB6A9B0007F130010B4453F81C1C93000C
:1026400007F13002134443F8281CFB6A0133FB6294
:10265000FB6A022BE0D9FB79BA6A9A4201D20023C5
:102660000AE0FB799B0007F13002134453F8283C41
:102670003B623B6A7B627B6A18463437BD465DF835
:10268000047B7047DCBD006080B586B000AF0346B8
:10269000B9607A60FB73FB7B1846FFF783FF7861B4
:1026A0007B69002B01D101234AE02749FB7B9A1E5D
:1026B00013465B0013445B010B4403F5DA734FF4DC
:1026C000C0121A607B691B6B43F480427B691A63FA
:1026D0007B691B6B43F400427B691A637B690022B0
:1026E0001A60FB7B0A2B08D0FB7B0B2B05D0FB7BF6
:1026F000062B02D0FB7B072B07D17B694FF400220E
:102700005A637B694FF480125A637B68002B16D0A2
:102710007B691A690D4B13407A68127802F00F0139
:102720007A685278120402F4702211437A6892781F
:10273000120202F470620A431A437B691A61002391
:1027400018461837BD4680BD00800D40F0F0F0FF00
:1027500080B588B000AF78600B46FB701346BB7045
:10276000FB785A00BB781344BB610023BB60002395
:10277000FB607A68BB6904339B0013445B6823F0F9
:102780001F03FB61A2E0BB68002B0CD1FB699B68B7
:102790007B617A69524B1340FA69928BC2F30B0248
:1027A00092B21343BB60FB695B68DBB25BB2002B88
:1027B00003DA4FF0FF33FB600DE0FB69DB69C3F325
:1027C00012331A46FB695B68C3F30E439BB2D21AFD
:1027D000FB681344FB607A68BB6904339B001344B5
:1027E0005A687968BB690C339B000B445B689A425A
:1027F0001CD17A68BB6904339B00134400225A60E1
:102800007A68BB690C339B00134400225A607B68D2
:102810009A68BB699B01134401229A607B689A689D
:10282000BB699B0113440022DA600DE07A68BB6942
:1028300004339B0013445B681B6819467A68BB69C4
:1028400004339B0013445960FB695B68C3F3C033D6
:10285000DBB2002B09D17A68BB6904339B001344B7
:102860005B6823F01F03002B14D1BB78DB01DAB2C5
:10287000FB781343DBB23B7400237B747B681B68DB
:1028800007F108021146184607F0C4FE0023BB609A
:102890000023FB60FB6900225A607B681B691A46B3
:1028A000FB691A607B68FA691A617B6893F8543097
:1028B0000133DAB27B6883F854207A68BB69043349
:1028C0009B0013445B6823F01F03FB61FB69002B33
:1028D0007FF459AF00BF00BF2037BD4680BD00BFA9
:1028E00000F0FFFF80B58CB000AF78607B685B685C
:1028F000D3F8AC317B627B6A002B50D0002387F881
:102900002B3048E097F82B307A6A22FA03F303F071
:102910000103002B3AD07B689A6897F82B305B0054
:10292000DBB29B01134430333B623B6AFB61FB69C2
:102930001B78DB0987F82A3097F82A2097F82B3084
:1029400019467868FFF704FF97F82A3083F00103EF
:10295000DAB297F82B3019467868FFF7F9FE97F846
:102960002B303B74FB69BB600823FB6001237B7445
:1029700097F82B301946786807F049F87B681B6890
:1029800007F108021146184607F044FE97F82B306D
:10299000013387F82B3097F82B30032BB2D97B68A3
:1029A0005B68D3F8BC317B627B685B687A6AC3F88A
:1029B000BC217B6A002B00F0A681002387F8293018
:1029C0009CE197F829307A6A22FA03F303F00103B5
:1029D000002B00F08E8197F829300F2B08D997F83B
:1029E0002930103B87F82B30012387F82A3006E086
:1029F00097F8293087F82B30002387F82A3097F88A
:102A00002B30032B00F2728197F82B305B00DAB287
:102A100097F82A301344FB760023BB600023FB6049
:102A200097F82B30002B23D197F82A30012B1FD198
:102A30007B689A68FB7E9B01134493F8383003F05F
:102A40000203DBB2002B13D07B689A68FB7E9B01EC
:102A500013441B68C3F34073DBB2002B08D17B68BF
:102A60009A68FB7E9B011A44136843F0005313607D
:102A7000FB7E7A6804339B0013445B6823F01F03DA
:102A8000FB622EE1002387F82830FB7E7A6804334E
:102A90009B0013445B6823F01F03FB6222E0FB6A88
:102AA0005B68DBB25BB2002B06DBFB6A5B68C3F3DF
:102AB000C033DBB2002B10D0FB6A5B68DBB25BB2C9
:102AC000002B13DBFB6A5B68C3F3C033DBB2002B64
:102AD0000CD0012387F8283008E0FB6A1B6823F03C
:102AE0001F03FB62FB6A002BD9D100E000BF97F8FF
:102AF0002830002B03D1FB6A002B40F0F980FB7ECD
:102B00007A6804339B0013445B6823F01F03FB6265
:102B1000E3E0FB6A5B68DBB25BB2002B00DAE0E06B
:102B2000BB68002B0AD1FB6A9A68794B1340FA6A9A
:102B3000928BC2F30B0292B21343BB60FB6ADB6958
:102B4000C3F312331A46FB6A5B68C3F30E439BB2AE
:102B5000D21AFB681344FB60FB7E7A6804339B0047
:102B600013445A68FB7E79680C339B000B445B6806
:102B70009A421CD1FB7E7A6804339B0013440022E6
:102B80005A60FB7E7A680C339B00134400225A6023
:102B90007B689A68FB7E9B01134401229A607B68E4
:102BA0009A68FB7E9B0113440022DA600DE0FB7EF5
:102BB0007A6804339B0013445B681A68FB7E1146F5
:102BC0007A6804339B0013445960FB6A5B68C3F363
:102BD000C033DBB2002B09D1FB7E7A6804339B0043
:102BE00013445B6823F01F03002B16D197F82A309B
:102BF000DB01DAB297F82B301343DBB23B740023CE
:102C00007B747B681B6807F108021146184607F0C1
:102C100001FD0023BB600023FB60FB6A00225A60B9
:102C20007B681B691A46FB6A1A607B68FA6A1A613C
:102C30007B6893F854300133DAB27B6883F8542010
:102C4000FB7E7A6804339B0013445B6823F01F0308
:102C5000FB62FB6A002B40D0FB6A5B68DBB25BB2B5
:102C6000002B3ADA97F82B2097F82A301B011344EF
:102C7000012202FA03F37B617B685B687A69C3F81F
:102C8000B0217B685B68D3F8B8217B691340002BC7
:102C900023D100BF7B685B68D3F8B0217B69134008
:102CA000002BF7D17B685B68D3F8B8217B691340B0
:102CB000002B12D17B689A68FB7E9B011344FA6A51
:102CC0009A607B689A68FB7E9B0113440022DA605D
:102CD0007B685B687A69C3F8B021FB6A002B7FF4DC
:102CE00018AFFB6A002B7FF4CDAE02E000BF00E01E
:102CF00000BF97F82930013387F8293097F8293039
:102D00001F2B7FF65EAE00BF3037BD4680BD00BFD3
:102D100000F0FFFF80B592B000AFF8607A603B60D2
:102D20000B46FB72FB7A5B0003F01E03FA7AD209B2
:102D3000D2B21343BB62FB7A03F00F02FB7ADB08CB
:102D400003F010031343012202FA03F37B627B6A50
:102D50003B640023BB633A6843F6FF7313449B0B49
:102D60007B63002387F83330012387F83230002358
:102D7000FB62FB68002B01D103239CE1FB689A688E
:102D8000BB6A9B01134493F8383003F00103DBB2B4
:102D9000002B01D101238EE1FB6893F85630002B04
:102DA00001D0012387E17B6B002B01D101237B63E1
:102DB00007F11003184608F0E0FBFB6893F8543065
:102DC0001A467B6B934205D93B69184608F0E2FB33
:102DD000022370E13B68B3F5804F03D94FF4804381
:102DE000FB6301E03B68FB633A68FB6BD31A3B6013
:102DF000FB681B693B623B6A1B681A46FB681A61E9
:102E0000FB6893F85430013BDAB2FB6883F8542036
:102E1000BB6B002B01D13B6A7B643B6A01221A60C9
:102E20003B6A00225A607A68BB6B13441A463B6ABD
:102E30009A603B6A9B6803F58052A14B13403A6A43
:102E4000D3603B6ADB6803F580523B6A1A613B6AD8
:102E50001B6903F580523B6A5A613B6A5B6903F563
:102E600080523B6A9A61FB6BC3F30E0399B23A6AD4
:102E7000536861F31E435360FB6BC3F312013A6A5C
:102E8000D36961F31E33D3613B6A9B68C3F30B03C1
:102E900099B23A6A938B61F30B0393833A6AD37FB7
:102EA0006FF3C713D3773B68002B04D13A6A53689A
:102EB00043F4004353603A6A5368802161F3070387
:102EC0005360BA6BFB6B1344BB63FA68BB6A0C3389
:102ED0009B0013445B68002B0FD0FA68BB6A0C336D
:102EE0009B0013445B683A6A1A60FA68BB6A0C3349
:102EF0009B0013443A6A5A6010E0FA68BB6A0433D4
:102F00009B0013443A6A5A60FA68BB6A0C339B0010
:102F100013443A6A5A60012387F833303B68002B28
:102F20007FF458AFFB7A03F00F03002B43D1FB7AF9
:102F3000DB09DBB2012B3ED1FB7A03F00F03DBB2DE
:102F40005B00FB77FB689A68FB7F9B01134430337F
:102F5000BB61BB697B61FB689A68BB6A9B011344D8
:102F600093F8383003F00203DBB2002B23D0FB6B65
:102F7000002B20D07B69DB881A46FB6B93421AD268
:102F8000FB689A68BB6A9B0113441B68C3F30A433E
:102F90009BB21A46FB6BB3FBF2F102FB01F29B1AE8
:102FA000002B08D1FB689A68BB6A9B011A4413681E
:102FB0006FF35D73136097F83330002B35D1FB68E6
:102FC0005B68D3F8B0217B6A1340002B1FD03B69AC
:102FD000184608F0DFFA00236DE0FB685B68D3F861
:102FE0004021FB685B6842F48052C3F84021FB68D3
:102FF0005B68D3F8B8313B64FB685B68D3F8403159
:1030000003F48053002B02D0002387F8323097F866
:103010003230002BE1D1FB685B68D3F84021FB68BC
:103020005B6822F48052C3F8402197F83330002BBC
:1030300004D13A6C7B6A1340002B37D1FB689A6845
:10304000BB6A9B0113447A6C9A60FB689A68BB6AFE
:103050009B0113440022DA60FB685B687A6AC3F85C
:10306000B02119E0FB6A0133FB62FB6A154A934207
:1030700005D13B69184608F08DFA01231BE0FB6877
:103080005B68D3F8BC217B6A1340002B0DD1FB6831
:103090005B687A6AC3F8B021FB685B68D3F8B82133
:1030A0007B6A1340002BDDD000E000BF3B6918466F
:1030B00008F070FA002318464837BD4680BD00BFAF
:1030C00000F0FFFF8096980080B485B000AF786074
:1030D0000023FB7315E0FB7B0F4AD35C002B0DD163
:1030E000FB7B0D4A0121D1547B68FA7B1A70FB7B74
:1030F0005C2202FB03F3094A134406E0FB7B013325
:10310000FB73FB7B002BE6D0002318461437BD462B
:103110005DF8047B704700BFF40E0020980E00207D
:1031200080B58AB000AF0346B9607A60FB730023B4
:103130007B623F4A07F1180392E8030083E803002B
:10314000FB7B012B03D9FB7B023B012B01D906231F
:103150006AE007F117031846FFF7B6FF78627B6A4B
:10316000002B01D103235FE0FB7D5B02314A1A444F
:103170007B6ADA60FB7DDB022F4A13443B627B6A89
:103180003A6A9A607B6AFA7B83F85720FB7B023BA2
:103190009B0007F12802134453F8103C1A467B6A3F
:1031A0005A607B6A5B68D3F840217B6A5B6842F0B7
:1031B0000202C3F8402100BF7B6A5B68D3F840314C
:1031C00003F00203002BF7D17B6A5B68D3F824314C
:1031D000DBB203F01F03DAB27B6A83F855207B6A07
:1031E00093F85530032B01D801231DE07B6ABA68A0
:1031F0001A607B6A5B68D3F8A8217B6A5B6822F05F
:103200000302C3F8A8217B6A5B68D3F8A8217B6A14
:103210005B6842F00202C3F8A821786A06F00FF951
:103220007B687A6A1A60002318462837BD4680BD3D
:10323000E8BD0060000C00200008002080B485B0CC
:1032400000AF78607B68BB607B68002B01D10323F3
:103250002FE00023FB730FE0FB7B5C2202FB03F3F8
:10326000174A1344BA689A4203D1FB7B154A0021DE
:10327000D154FB7B0133FB73FB7B002BECD0BB6891
:103280005B680022C3F84821BB685B68D3F8402123
:10329000BB685B6822F00102C3F84021BB685B6831
:1032A000D3F84021BB685B6842F00202C3F84021BA
:1032B000002318461437BD465DF8047B704700BFF5
:1032C000980E0020F40E002080B58AB000AF786020
:1032D0000B46FB707B683B62FB7803F00F02FB78C8
:1032E000DB0803F010031343012202FA03F3FB612E
:1032F000FB785B00DBB203F01E03DAB2FB78DB097C
:10330000DBB21343FB767B68002B01D10323E3E0A0
:1033100007F10803184608F030F90023FB604FF06E
:10332000FF333B61FB7E3A6A04339B0013445B68C6
:1033300023F01F037B6209E07A6AD37F43F08003A6
:10334000D3777B6A1B6823F01F037B627B6A002BA9
:10335000F2D1FB7E3A6A04339B0013445B6823F08E
:103360001F037B629CE07B6ADB7F23F07F03DBB281
:10337000002B00F09A807B6A5B68DBB25BB2002BAB
:103380001ADA3B6A5B68D3F8B4113B6A5B68FA6986
:103390000A43C3F8B42100BF3B6A5B68D3F8B42189
:1033A000FB691340002BF7D13B6A5B68D3F8B82167
:1033B000FB691340002BE4D1FB68002B0AD17B6A28
:1033C0009A68474B13407A6A928BC2F30B0292B20F
:1033D0001343FB60FB7E3A6A04339B0013445A6834
:1033E000FB7E396A0C339B000B445B689A420ED11A
:1033F000FB7E3A6A04339B00134400225A60FB7E32
:103400003A6A0C339B00134400225A600DE0FB7EA5
:103410003A6A04339B0013445B681A68FB7E1146CA
:103420003A6A04339B00134459607B6A5B68C3F3B8
:10343000C033DBB2002B09D1FB7E3A6A04339B0018
:1034400013445B6823F01F03002B0DD1FB783B7501
:1034500000237B753B6A1B6807F10C021146184676
:1034600007F0D8F80023FB607B6A00225A603B6AB1
:103470001B691A467B6A1A603B6A7A6A1A613B6A60
:1034800093F854300133DAB23B6A83F85420FB7E60
:103490003A6A04339B0013445B6823F01F037B628A
:1034A0007B6A002B7FF45FAF00E000BF7B6A002BDC
:1034B0000DD13B6A9A68FB7E9B01134401229A60FE
:1034C0003B6A9A68FB7E9B0113440022DA60BB686A
:1034D000184608F05FF8002318462837BD4680BD1F
:1034E00000F0FFFF80B58AB000AFF8600B467A604D
:1034F000FB72FB683B62012387F82730FB68002BD7
:1035000001D1032336E1FB7A142B00F2208101A2C2
:1035100052F823F06935006085350060A135006000
:10352000B9350060D9350060F935006019360060A2
:1035300033360060E53600604F3700604F3700607B
:103540004F3700604F3700604F370060ED36006046
:10355000333700604F3700604F3700604F370060EF
:103560004F370060C13600603B6A5B68D3F840218A
:103570003B6A5B6842F00102C3F84021002387F8F0
:103580002730F5E03B6A5B68D3F840213B6A5B6813
:1035900022F00102C3F84021002387F82730E7E03A
:1035A0007B68002B00F0D5807968386A05F0E0FF71
:1035B000034687F82730CCE07B68002B00F0CB80F7
:1035C0007B68FB61FB691B781946386A06F0D2F804
:1035D000034687F82730BEE07B68002B00F0BD80F3
:1035E0007B68FB61FB691B781946386A06F03DF978
:1035F000034687F82730B0E07B68002B00F0AF80EF
:103600007B68FB61FB691B781946386A06F0A2F9F2
:10361000034687F82730A2E07B68002B00F0A180EA
:103620007B683B613B6901221A80002387F82730C1
:1036300097E07B68002B00F096807B68BB61BB69DC
:103640001B7803F00F03FB75BB691B78DB09BB75A7
:10365000FB7D032B00F28780FB7D002B18D03B6A9B
:103660005A68FB7D013B70339B0013445B68BA7D55
:10367000002A02D04FF4803200E001221340002BD8
:1036800014BF01230023DBB29AB2BB695A8013E056
:103690003B6A5B68D3F8C031BA7D002A02D04FF490
:1036A000803200E001221340002B14BF01230023CD
:1036B000DBB29AB2BB695A80002387F8273052E008
:1036C0007B68002B51D07B68FB61FB691B785A0635
:1036D0003B6A5B6842F08072C3F85421002387F88C
:1036E000273042E0002387F8273041E0002387F8A5
:1036F000263013E097F8263063F07F03DBB21946DB
:10370000386A06F037F897F826301946386A06F016
:1037100031F897F82630013387F8263097F82630AD
:10372000032BE7D9386A05F08AFE002387F8273093
:103730001EE07B68002B1AD07B68FB613B6A93F824
:103740005820FB691A70002387F827300FE000BF6C
:103750000EE000BF0CE000BF0AE000BF08E000BFC1
:1037600006E000BF04E000BF02E000BF00E000BFD1
:1037700097F8273018462837BD4680BD90B5A7B0CA
:1037800002AFF860B9607A600023BB6700237B67F3
:10379000052387F88F30002387F87330BB685B6898
:1037A000B3F1FF3F02D07B68002B02D197F88F3036
:1037B000A0E17B68C7F88830D7F888309B68C7F8E5
:1037C0008430D7F88430C7F8803007F173031A4685
:1037D0000621F86800F05AFABB681B7A002B00F04B
:1037E0001581BB685B68082B03D1BB681B68002B85
:1037F00002D197F88F307DE1BB681B68C7F8843031
:10380000D7F88430FB67FB6F5A88D7F880305A802E
:10381000FB6F9A88D7F880309A80FB6FDA88D7F8E8
:103820008030DA80FB6F5A78D7F880305A70FB6F9F
:103830001A78D7F880301A70D7F880301B7803F0E8
:103840006003002B23D1D7F880305B780C2B00F27B
:10385000CB80D7F880305B781A46A84B53F82230DB
:10386000002B00F0C180D7F880305B781A46A34B5C
:1038700053F8224007F1740307F17802D7F880105B
:10388000D7F88800A047034687F88F30ACE0D7F818
:103890008030DB88002B64D0D7F880301B785BB297
:1038A000002B5EDBD7F88030DB88002B21D0D7F8E7
:1038B00080301B7803F02003002B1AD000237B6696
:1038C000012387F86C30D7F880303B66D7F880301A
:1038D000DB88BB6607F160031A460121F86801F036
:1038E000F3F9034687F88F30BB6E7B677B6EBB674F
:1038F00025E0D7F88030DB88002B20D0D7F8803047
:103900001B7803F04003002B19D000237B650123B3
:1039100087F85C30D7F880303B65D7F88030DB889B
:10392000BB6507F150031A461321F86807F006FA41
:10393000034687F88F30BB6D7B677B6DBB6797F85D
:103940008F30002B50D1BA6FD7F88030DB88002140
:10395000F86806F07CFF034687F88F3097F88F30C1
:10396000C8E0D7F880301B7803F02003002B1AD072
:1039700000237B64012387F84C30D7F880303B6408
:10398000D7F88030DB88BB6407F140031A46012179
:10399000F86801F099F9034687F88F30BB6C7B67B4
:1039A0007B6CBB6720E0D7F880301B7803F04003C6
:1039B000002B19D000237B63012387F83C30D7F814
:1039C00080303B63D7F88030DB88BB6307F130037E
:1039D0001A461321F86807F0B1F9034687F88F30CB
:1039E000BB6B7B677B6BBB6797F88F2007F174031A
:1039F000019307F1780300930023D7F88010F8684B
:103A000006F021FC034687F88F3071E097F8733099
:103A1000032B13D1D7F880305B781A46374B53F815
:103A2000224007F1740307F17802D7F88010D7F825
:103A30008800A047034687F88F3059E0BB685B6871
:103A4000002B55D0D7F88030DB88002B50D0D7F82A
:103A500080301B785BB2002B4ADBD7F880301B78B4
:103A600003F02003002B16D0BB681B687B62002389
:103A700087F82C30D7F880303B62BB685B68BB624C
:103A800007F120031A460121F86801F01DF90346E9
:103A900087F88F301BE0D7F880301B7803F04003A5
:103AA000002B14D0BB681B687B6100233B77D7F8E1
:103AB00080303B61BB685B68BB6107F110031A464D
:103AC0001321F86807F03AF9034687F88F3097F822
:103AD0008F2007F17403019307F17803009301230A
:103AE000D7F88010F86806F0AEFB034687F88F30F1
:103AF00097F88F3018469437BD4690BDF0BD0060F2
:103B000080B588B000AF786039601B4BFB603B68C4
:103B10003B6101233B770023FB7600237B778023E7
:103B2000BB7640233B8307F10C0207F118031946CB
:103B3000786806F0A2FE0346FB77FB7F002B01D0DE
:103B4000FB7F15E00023BB7607F10C0207F1180399
:103B50001946786806F091FE0346FB77FB7F002B41
:103B600005D08021786806F0E7FEFB7F00E00023A7
:103B700018462037BD4680BD7D37006080B584B0D3
:103B800000AF03463960FB7107F10803184607F0E0
:103B9000F4FC0023FB601FE02C49FA6813461B016C
:103BA0009B1ADB000B4408331B68002B11D02749FC
:103BB000FA6813461B019B1ADB000B4475331B7814
:103BC000FA799A4205D1BB68184607F0E3FC012355
:103BD00037E0FB680133FB60FB68002BDCD000237F
:103BE000FB6026E01949FA6813461B019B1ADB00AB
:103BF0000B4408331B68002B18D11449FA6813468C
:103C00001B019B1ADB000B447533FA791A70FA68B2
:103C100013461B019B1ADB000C4A1A443B681A60CE
:103C2000BB68184607F0B6FC00230AE0FB680133C6
:103C3000FB60FB68002BD5D0BB68184607F0AAFCD8
:103C4000022318461037BD4680BD00BF000E00207D
:103C500080B485B000AF03463960FB710623FB7367
:103C6000FB79BB73BB7B022B02D0BB7B032B04D144
:103C70003B68054A1A600023FB73FB7B1846143728
:103C8000BD465DF8047B704724BE006080B586B0F9
:103C900000AFF8600B467A60FB720123FB757B680E
:103CA000002B01D1042353E0FB7A023B062B4DD8B5
:103CB00001A252F823F000BFD53C0060E53C006053
:103CC0001D3D00602D3D0060F53C0060093D006039
:103CD0003D3D00607A680F21F86806F0AAFB0346B4
:103CE000FB7534E07A681021F86806F0A2FB034601
:103CF000FB752CE07B683B610023FB75FB6893F848
:103D000076203B691A7022E07B683B610023FB75DB
:103D1000FB6893F874203B691A7018E07A680621F2
:103D2000F86806F086FB0346FB7510E07A68072109
:103D3000F86806F07EFB0346FB7508E07A68092107
:103D4000F86806F076FB0346FB7500E000BFFB7DDC
:103D500018461837BD4680BD80B586B000AFF86004
:103D60000B467A60FB720123FB75FB7A033B0B2B3E
:103D700074D801A252F823F0A93D00605D3E0060B6
:103D80005D3E0060B93D0060CF3D00605D3E00607B
:103D90005D3E00603D3E00604D3E00601D3E0060A7
:103DA0005D3E00602D3E00607A681121F86806F0E3
:103DB00040FB0346FB7556E07B68002B50D0002388
:103DC000FB757B681A78FB6883F8762048E0FB680F
:103DD00093F87630032B17D07B68002B42D000235A
:103DE000FB757B681A78FB6883F87420FB680322F4
:103DF00083F87620FB6874331A461421F86806F0BD
:103E000018FB0346FB752DE0FB6874331A46082146
:103E1000F86806F00EFB0346FB7523E07A680A217A
:103E2000F86806F006FB0346FB751CE07A680B2178
:103E3000F86806F0FEFA0346FB7514E07A680C2178
:103E4000F86806F0F6FA0346FB750CE07A680D2177
:103E5000F86806F0EEFA0346FB7504E000BF02E0E6
:103E600000BF00E000BFFB7D18461837BD4680BD8F
:103E700080B485B000AF78600023FB6015E0104A85
:103E8000FB68682101FB03F313441B68002B09D175
:103E9000FB68682202FB03F3094A1A447B681A6034
:103EA000002306E0FB680133FB60FB68002BE6D0D3
:103EB000022318461437BD465DF8047B704700BFE7
:103EC000F80E002080B592B000AF786000237B64CC
:103ED000012387F843307B68002B02D197F84330E9
:103EE000C6E17B6893F86430002B08D07B6893F8B8
:103EF00064207B685B689B685B799A4202D997F87B
:103F00004330B5E17B685B689B681A687B6893F80F
:103F1000643019466FF060430B44DB0013447B634D
:103F20000023FB634DE07B6B5968FA6B13465B0023
:103F300013449B000B441B78022B3FD10023BB632F
:103F400022E07B6B5968FA6B13465B0013449B00BD
:103F50000B445A68BB6B1B0113441A787B6893F8B7
:103F600066309A420DD17B6B5968FA6B13465B0041
:103F700013449B000B445A68BB6B1B0113447B64C6
:103F80000FE0BB6B0133BB637B6B5968FA6B134665
:103F90005B0013449B000B441B7A1A46BB6B934295
:103FA000CFD37B6B5968FA6B13465B0013449B00BD
:103FB0000B44DA787B6883F8652008E0FB6B0133FB
:103FC000FB637B6B1B781A46FB6B9342ABD37B6C1A
:103FD000002B02D197F843304AE17B687A6C9A60F3
:103FE0000023FB6368E0002387F830307B6C99681E
:103FF000FA6B13465B0013445B000B441B7987F894
:1040000031307B6C9968FA6B13465B0013445B009C
:104010000B441B7887F82E307B6C9968FA6B13463B
:104020005B0013445B000B445B88BB857B6C996829
:10403000FA6B13465B0013445B000B445B7887F814
:104040002F3097F82E30DB09DBB2012B1CD197F80B
:104050002F30032B18D197F82E3003F00F03DAB26C
:104060007B6883F861207B68002283F862207B688C
:104070004FF0FF329A657B68002283F860207B68EE
:104080000022DA657C4B3B627B687B627B681B6845
:1040900007F1200207F12C01184606F0EEFB03465B
:1040A00087F8433097F84330002B02D097F843301D
:1040B000DEE0FB6B0133FB637B6C1B791A46FB6B09
:1040C000934290D30023FB6342E07B6B5968FA6B09
:1040D00013465B0013449B000B441B780A2B34D11E
:1040E0000023BB6323E07B6B5968FA6B13465B00CC
:1040F00013449B000B445A68BB6B1B0113441A7892
:104100007B6893F866309A420ED17B6B5968FA6BE4
:1041100013465B0013449B000B445A68BB6B1B01A6
:1041200013447B6400BF19E0BB6B0133BB637B6B43
:104130005968FA6B13465B0013449B000B441B7ACF
:104140001A46BB6B9342CED308E0FB6B0133FB6393
:104150007B6B1B781A46FB6B9342B6D37B687A6CF9
:10416000DA600023FB637AE000233B777B6C99687D
:10417000FA6B13465B0013445B000B441B797B779F
:104180007B6C9968FA6B13465B0013445B000B442D
:104190001B78BB767B6C9968FA6B13465B00134403
:1041A0005B000B445B883B837B6C9968FA6B13461E
:1041B0005B0013445B000B445B78FB76BB7EDB0942
:1041C000DBB2012B1BD1FB7E022B18D1BB7E03F08F
:1041D0000F03DAB27B6883F829207B68002283F81A
:1041E0002A207B684FF0FF321A627B68002283F836
:1041F00028207B6800225A62204BFB601EE0BB7EB9
:104200005BB2002B1ADBFB7E022B17D1BB7E03F0C7
:104210000F03DAB27B6883F845207B68002283F8BD
:1042200046207B684FF0FF32DA637B68002283F818
:1042300044207B6800221A64114BFB607B683B6161
:104240007B681B6807F10C0207F11801184606F09D
:1042500014FB034687F84330FB6B0133FB637B6C35
:104260001B791A46FB6B9342FFF47EAF97F84330FD
:1042700018464837BD4680BD77AA0060CBAA0060CB
:104280001FAB006080B598B000AFF860B9607A608D
:10429000012387F85F30BB6887F857307B68002BB5
:1042A00002D0FB68002B01D103230CE3FB683B65C4
:1042B00097F85730013B052B00F2F08201A252F82B
:1042C00023F000BFC9460060DD420060E7420060A5
:1042D00041430060B5430060974400603B6D00229D
:1042E00083F86420EDE27B68FB643B6D5B68002B28
:1042F00000F0D682FB6C1A783B6D93F864309A42DA
:1043000000F0D082386D06F034FC034687F85F3049
:10431000FB6C1A783B6D83F864203B6D002283F8B8
:104320006620386DFFF7CEFD034687F85F3097F8BB
:104330005F30002B00F0B8829348FEF7F7F8B3E245
:104340003B6D5B68002B00F0B1827B681B88A7F88F
:104350004A30B7F84A3087F849303B6D93F865200A
:10436000B7F84A301B0A9BB2DBB29A4240F0A082F7
:104370003B6D93F8663097F849209A4200F09A8294
:10438000386D06F0F6FB034687F85F303B6D97F813
:10439000492083F86620386DFFF794FD034687F8BF
:1043A0005F3097F85F30002B00F086827748FEF789
:1043B000BDF881E23B6D5B68002B00F07F823B6DB6
:1043C0009B68002B00F07A823B6DDB68002B00F0CD
:1043D00075827B68FB640023BB651FE0FB6C19786A
:1043E0003B6D9B689868BA6D13465B0013445B0095
:1043F00003441B7899420ED13B6D012283F8602063
:104400003B6D1A68FB6C1B781946104606F0EAFAF9
:10441000034687F85F30BB6D0133BB653B6D9B681E
:104420001B791A46BB6D9342D8D30023BB652AE0A3
:10443000FB6C19783B6DDB689868BA6D13465B00BE
:1044400013445B0003441B78994219D1FB6C1B7821
:10445000DB09DBB2012B04D13B6D012283F828205C
:1044600003E03B6D012283F844203B6D1A68FB6C2E
:104470001B781946104606F0B5FA034687F85F30F8
:10448000BB6D0133BB653B6DDB681B791A46BB6DA9
:104490009342CDD315E23B6D5B68002B00F00E829A
:1044A0003B6D9B68002B00F009823B6DDB68002BA5
:1044B00000F004827B68FB640023BB6559E0FB6C61
:1044C00019783B6D9B689868BA6D13465B0013447E
:1044D0005B0003441B78994248D13B6D1A68FB6C22
:1044E0001B781946104606F095FA034687F85F30A8
:1044F000FB6C1B78DB09DBB2012B37D13B6D93F8EA
:104500006030002B32D03B6D002283F860203B6D81
:104510009B6DB3F1FF3F29D03B6D18683B6D93F85D
:1045200061103B6D9A6D3B6DDB6D06F077F90346CC
:1045300087F85F3097F85F30002B10D03B6D9B6D94
:10454000BB623B6DDB6DFB62002387F830303B6D57
:104550001B6807F12801FA68184606F0B6FA3B6DA9
:104560004FF0FF329A653B6D0022DA65BB6D013377
:10457000BB653B6D9B681B791A46BB6D93429ED30E
:104580000023BB6597E000BF3CBE006084BE0060B6
:10459000FB6C19783B6DDB689868BA6D13465B005D
:1045A00013445B0003441B78994240F081803B6DCB
:1045B0001A68FB6C1B781946104606F02BFA034666
:1045C00087F85F30FB6C1B78DB09DBB2012B38D13D
:1045D0003B6D93F82830002B6AD03B6D002283F8A6
:1045E00028203B6D1B6AB3F1FF3F61D03B6D18681B
:1045F0003B6D93F829103B6D1A6A3B6D5B6A06F0C0
:104600000DF9034687F85F3097F85F30002B10D024
:104610003B6D1B6AFB613B6D5B6A3B62002387F865
:1046200024303B6D1B6807F11C01FA68184606F040
:104630004CFA3B6D4FF0FF321A623B6D00225A621A
:1046400036E03B6D93F84430002B31D03B6D0022B7
:1046500083F844203B6DDB6BB3F1FF3F28D03B6D0B
:1046600018683B6D93F845103B6DDA6B3B6D1B6C26
:1046700006F0EDF8034687F85F3097F85F30002BBF
:104680000FD03B6DDB6B3B613B6D1B6C7B61002393
:104690003B763B6D1B6807F11001FA68184606F07F
:1046A0003EFA3B6D4FF0FF32DA633B6D00221A6435
:1046B000BB6D0133BB653B6DDB681B791A46BB6D77
:1046C0009342FFF465AFFCE07B687B647B6C1B6806
:1046D0009B88DBB23A6D92F86520934240F0F080FF
:1046E0007B6C1B681B7803F06003202B40F0D480A8
:1046F0007B6C04337B637B6C0833BB637B6C1B6814
:104700009B88BB877B6C1B685B88FB877B6C1B7BF8
:1047100087F840307B6C1B685B78232B00F2B880F5
:1047200001A252F823F000BFB9470060D1470060F2
:10473000E947006001480060194800609148006046
:104740009148006091480060914800609148006085
:104750009148006091480060914800609148006075
:104760009148006091480060914800609148006065
:104770009148006091480060914800609148006055
:104780009148006091480060914800609148006045
:104790009148006091480060914800609148006035
:1047A00091480060914800604948006031480060CD
:1047B00061480060794800603B6D5B681B6807F1E9
:1047C00034020421386D9847034687F85F3064E06F
:1047D0003B6D5B681B6807F134020521386D984713
:1047E000034687F85F3058E03B6D5B681B6807F154
:1047F00034020621386D9847034687F85F304CE055
:104800003B6D5B681B6807F134020721386D9847E0
:10481000034687F85F3040E03B6D5B681B6807F13B
:1048200034020821386D9847034687F85F3034E03A
:104830003B6D5B681B6807F134020921386D9847AE
:10484000034687F85F3028E03B6D5B681B6807F123
:1048500034020A21386D9847034687F85F301CE020
:104860003B6D5B681B6807F134020B21386D98477C
:10487000034687F85F3010E03B6D5B681B6807F10B
:1048800034020C21386D9847034687F85F3004E006
:10489000052387F85F3000E000BF12E000BF10E0A2
:1048A00000BF0EE000BF0CE000BF0AE000BF08E060
:1048B00000BF06E000BF04E000BF02E000BF00E070
:1048C00000BF97F85F3018466037BD4680BD00BF17
:1048D00080B586B000AF0346B9607A60FB7307F11C
:1048E00010031846FFF7C4FA0346FB75FB7D002B47
:1048F00001D0FB7D4FE03B691A46FB7B1146184611
:1049000000F0A6F90346FB75FB7D002B01D0FB7D73
:1049100041E03B691B68002B01D103233BE03B696D
:10492000BA685A603B69002283F864203B69FF2221
:1049300083F866203A693B6914321A613B691B6946
:10494000184602F039FA0346002B02D01448FDF74E
:10495000EDFD3A693B693032DA623B69DB6A184641
:1049600002F02AFA0346002B02D00D48FDF7DEFDC7
:104970003A693B694C329A643B699B6C184602F079
:104980001BFA0346002B02D00548FDF7CFFD3A691C
:104990007B681A60FB7D18461837BD4680BD00BF96
:1049A000C8BE006080B584B000AF78607B68FB60F3
:1049B000FB68002B01D1032329E0FB681B69184623
:1049C00002F01AFA0346002B02D01348FDF7AEFDA1
:1049D000FB68DB6A184602F00FFA0346002B02D090
:1049E0000D48FDF7A3FDFB689B6C184602F004FA26
:1049F0000346002B02D00848FDF798FDF86806F042
:104A0000B8F80346FB72F86806F01CF8FB7A184603
:104A10001037BD4680BD00BFDCBE006080B584B0ED
:104A200000AF03463960FB7107F10803184606F032
:104A3000A4FD0023FB6018E0284AFB681B01134417
:104A40001B68002B0ED0254AFB681B0113440E3354
:104A50001B78FA799A4205D1BB68184606F09AFD90
:104A6000012337E0FB680133FB60FB68002BE3D0D8
:104A70000023FB6026E0194AFB681B0113441B68F6
:104A8000002B1CD1154AFB681B0113440E33FA7925
:104A90001A70FB68DB00124A1A441049FB681B01BC
:104AA0000B4408331A60FB681B010C4A1A443B682C
:104AB0001A60BB68184606F06DFD00230AE0FB682B
:104AC0000133FB60FB68002BD5D0BB68184606F0AD
:104AD00061FD022318461037BD4680BD600F0020DF
:104AE000700F002080B584B000AF0346FB71002337
:104AF000FB6007F10803184606F03FFD2CE01C4A56
:104B0000FB681B0113441B68002B22D0184AFB686A
:104B10001B0113440E331B78FA799A4219D1144AB7
:104B2000FB681B01134400221A60114AFB681B0139
:104B30001344043300221A600D4AFB681B0113441E
:104B40000E3300221A70BB68184606F023FD0023BE
:104B50000AE0FB680133FB60FB68002BCFD0BB6829
:104B6000184606F017FD042318461037BD4680BDD1
:104B7000600F002080B584B000AF03463960FB7140
:104B80000023FB6007F10803184606F0F6FC1EE060
:104B9000154AFB681B0113441B68002B14D0124AF2
:104BA000FB681B0113440E331B78FA799A420BD130
:104BB000FB681B010C4A1A443B681A60BB68184624
:104BC00006F0E8FC00230AE0FB680133FB60FB68A9
:104BD000002BDDD0BB68184606F0DCFC0423184629
:104BE0001037BD4680BD00BF600F002080B584B087
:104BF00000AF786039600023FB6007F108031846B6
:104C000006F0BBFC16E0114AFB681B0113441B684D
:104C10007A689A420BD1FB681B010C4A1A443B6824
:104C20001A60BB68184606F0B5FC00230AE0FB6872
:104C30000133FB60FB68002BE5D0BB68184606F02B
:104C4000A9FC042318461037BD4680BD600F002024
:104C500080B584B000AF03463960FB710023FB6070
:104C600007F10803184606F088FC1FE0154AFB68A8
:104C70001B0113441B68002B15D0124AFB681B0153
:104C800013440E331B78FA799A420CD10D4AFB6813
:104C90001B0113441A683B681A60BB68184606F08B
:104CA00079FC00230AE0FB680133FB60FB68002B02
:104CB000DCD0BB68184606F06DFC0423184610379C
:104CC000BD4680BD600F002090B587B000AFF86092
:104CD0000B467A60FB7201237B757B68002B01D148
:104CE000042358E007F110031946F868FFF77EFF28
:104CF00003463B753B7D002B01D004234BE0002392
:104D0000BB7541E00023FB7536E0FB7D244A1B01A7
:104D100013440C3319783B695B681868BA7D1346F5
:104D20005B0013449B0003449B681B79994220D18C
:104D3000FB7D1B4A1B01134408331C683B695B68FD
:104D40001968BA7D13465B0013449B000B445B68F3
:104D5000F97A7A681846A04703463B753B7D052BD8
:104D600001D1052317E03B7D002B09D100237B7582
:104D700006E0FB7D0133FB75FB7D012BC5D900E00F
:104D800000BFBB7D0133BB753B695B681B7ABA7D95
:104D90009A42B7D37B7D18461C37BD4690BD00BFF5
:104DA000F4BE006090B587B000AF0346B9607A608A
:104DB000FB737B68002B06D0BB68002B03D0BB685D
:104DC0005B68002B01D1042370E007F11002FB7B2C
:104DD00011461846FFF722FE03467B757B7D002BAC
:104DE00001D07B7D62E03B69BA685A603B691A4634
:104DF000FB7B3049184605F02DFC03467B757B7D17
:104E0000002B0AD03B691B68184605F0E6FCFB7BCB
:104E10001846FFF767FE7B7D48E00023BB753AE04C
:104E20000023FB7531E03B695B681968BA7D134666
:104E30005B0013449B000B449B681A79FB7D1E4961
:104E40001B010B440C331B789A421BD1FB7D1A4A81
:104E50001B0113441C683B695B681968BA7D1346E3
:104E60005B0013449B00C8183B695B681968BA7DF6
:104E700013465B0013449B000B441A1DFB7B014649
:104E80001846A047FB7D0133FB75FB7D012BCAD97A
:104E9000BB7D0133BB753B695B681B7ABA7D9A4267
:104EA000BED33B691A687B681A607B7D18461C3745
:104EB000BD4690BD3DAD0060F4BE006080B483B0DF
:104EC00000AF786039603B68054A1A603B6812227F
:104ED0005A60002318460C37BD465DF8047B7047C6
:104EE0005C00002080B483B000AF786039603B681C
:104EF0001B7A002B07D13B68064A1A603B684322A5
:104F00005A60002300E0052318460C37BD465DF8C3
:104F1000047B70477000002080B485B000AF7860DB
:104F200039603B689B7A002B08D12A4B1A683B6892
:104F30001A60284B5A683B685A6044E00023FB73B0
:104F40000323BB7317E03B681989224B9868FA7BEF
:104F500013465B0013449B0003441B89994207D10D
:104F60003B689B7A022B0AD83B689B7ABB7306E0AE
:104F7000FB7B0133FB73FB7B002BE4D000E000BF25
:104F8000BB7B032B01D105231EE0124B9968FA7BF2
:104F900013465B0013449B000B441A68BB7B9B00C9
:104FA00013441A683B681A600A4B9968FA7B1346E7
:104FB0005B0013449B000B445A68BB7B9B0013446B
:104FC0001A683B685A60002318461437BD465DF8DE
:104FD000047B70473001002080B487B000AF786058
:104FE0000B46FB70894B7B61894BFB607DE07B69E5
:104FF0005B78052B73D1FB78022B38D17B699B78CA
:105000005BB2002B0FDA7B699B7803F00F03012B57
:1050100009D17B6907229A717B6900225A717B69E9
:1050200010221A715BE07B699B785BB2002B0CDA73
:105030007B699B7803F00F03022B06D17B69022268
:105040005A717B6900221A7149E07B699B785BB2D7
:10505000002B44DB7B699B7803F00F03032B3ED1CD
:105060007B6902225A717B6900221A7137E07B69E1
:105070009B785BB2002B0FDA7B699B7803F00F0300
:10508000012B09D17B6908229A717B6900225A7130
:105090007B6910221A7122E07B699B785BB2002B3E
:1050A0000CDA7B699B7803F00F03022B06D17B6936
:1050B00000225A717B6940221A7110E07B699B784B
:1050C0005BB2002B0BDB7B699B7803F00F03032B98
:1050D00005D17B6900225A717B6940221A717B6974
:1050E0001B781A467B6913447B617A69FB689A4294
:1050F000FFF47DAF00233B612EE0FB78022B14D13F
:1051000044493A6913465B0013445B000B44023385
:1051100010221A803F493A6913465B0013445B0032
:105120000B44043307221A7013E03A493A691346D4
:105130005B0013445B000B44023310221A80354994
:105140003A6913465B0013445B000B4404330822A6
:105150001A703B6901333B613B69002BCDDD0023B5
:105160003B6148E0FB78022B22D12B493A69134678
:105170005B0013445B000B441B785BB2002B0BDA23
:1051800025493A6913465B0013445B000B44023324
:105190004FF400721A802BE01F493A6913465B00F6
:1051A00013445B000B4402334FF400721A801FE07B
:1051B00019493A6913465B0013445B000B441B78A2
:1051C0005BB2002B0ADA14493A6913465B001344B8
:1051D0005B000B44023340221A8009E00E493A6911
:1051E00013465B0013445B000B44023340221A80D9
:1051F0003B6901333B613B69012BB3DD002318465A
:105200001C37BD465DF8047B704700BF700000206E
:10521000B2000020000000200800002080B483B00D
:1052200000AF0346FB80B7F90630002B0BDBFB8891
:1052300003F01F020749B7F906305B09012000FAA5
:1052400002F241F8232000BF0C37BD465DF8047B15
:10525000704700BF00E100E080B483B000AF0346B8
:105260003960FB80B7F90630002B0ADB3B68DAB205
:105270000C49B7F906301201D2B20B4483F800236F
:105280000AE03B68DAB20849FB8803F00F03043BED
:105290001201D2B20B441A7600BF0C37BD465DF83E
:1052A000047B704700E100E000ED00E080B500AF56
:1052B000034B1B68184604F0B9FC00BF80BD00BF5B
:1052C000780F002080B500AF034B1B68184604F030
:1052D000ADFC00BF80BD00BF780F002080B582B05C
:1052E00000AF0D4A3B1D1268114619800233120CA3
:1052F0001A700A49002000F0F5FB0849002000F070
:10530000B3FB3B1D1A4606490220FDF7BDF900BF5D
:105310000837BD4680BD00BF14BF006000389C1C2C
:1053200000366E0180B58AB000AFF860B9607A606F
:10533000012387F827308B4B3B627B68FB617B68DE
:10534000BB61BB68013B0B2B00F28A8101A252F8C2
:1053500023F000BF85530060035400604354006095
:10536000615600606156006053540060A1540060B3
:1053700061560060DB540060F35400601555006016
:1053800061560060BB695B68002B15D0BB695B6828
:10539000754A5288B3FBF2F102FB01F29B1A002B13
:1053A0000AD1002300220221F86805F039FC0346E7
:1053B00087F8273000BF55E16C4B1B7ADBB2012B1D
:1053C00040F05081694B9B7ADBB2012B40F04A815F
:1053D000BB691B68002B09D1BB691B68002B40F01F
:1053E0004181BB695B68002B40F03C815E4B5B8870
:1053F0005F4A0321F86805F065FC034687F827300B
:1054000030E15A4B1B7ADBB2012B40F02D81574B18
:105410009B7ADBB2012B40F02781BB695B68554A60
:105420001360544B1B68002B40F01E814E4B5B8871
:105430004F4A0321F86805F045FC034687F82730FA
:1054400012E1FB68002283F86720002387F82730E9
:105450000DE1FB695B89012B0DD1FB691B7B012BE6
:1054600004D1FB691B68444A1A6015E0FB695B685C
:1054700000221A6010E0FB695B89022B0CD1FB69EA
:105480001B7B012B04D1FB691B683C4A1A6003E0BB
:10549000FB695B6800221A60002387F82730E6E08A
:1054A000FB695B89012B08D1FB691B68324A1A60D2
:1054B000FB695B6802221A600BE0FB695B89022BC7
:1054C00007D1FB691B682D4A1A60FB695B680222E1
:1054D0001A60002387F82730C9E0FB691B68284A57
:1054E0001A60FB695B6807221A60002387F827307F
:1054F000BDE0FB691B7B012B04D1FB691B68204AC3
:105500001A6003E0FB695B6800221A60002387F8D9
:105510002730ACE0FB695B89DAB2124B9A733B6AC5
:105520009B7B03F00203002B07D03B6A1B8A43F0EE
:1055300002039AB23B6A1A8206E03B6A1B8A23F096
:1055400002039AB23B6A1A823B6A9B7B03F0010317
:10555000002B17D03B6A1B8A43F001039AB23B6AC7
:105560001A8216E0900F002008000020780F00201B
:10557000A40F0020A4130020880F00208C0F00200F
:10558000400100203B6A1B8A23F001039AB23B6A68
:105590001A823B6A9B7B03F00103DAB23B6A9A7280
:1055A0003B6AA1221A703B6A20225A703B6A002291
:1055B0009A703B6A0022DA703B6A00221A713B6AD9
:1055C00000225A713B6A02229A713B6A0022DA7108
:1055D000FB691B89DAB23B6A1A713B6A08337B614B
:1055E0003B6A1B8ADAB27B691A703B6A1B8A1B0A08
:1055F0009AB27B690133D2B21A700A233B61FB680D
:1056000093F86730002B13D13A6A3B690121F8689F
:1056100005F006FB034687F8273097F82730002B64
:1056200002D01648FCF782FFFB68012283F867204E
:105630003B6A9B7B03F00103002B08D0104B1B7AC5
:10564000DBB2012B12D10E4B01229A720EE00C4BF1
:105650001B7ADBB2012B09D1094B00229A7205E0BB
:1056600000BF04E000BF02E000BF00E000BF97F809
:10567000273018462837BD4680BD00BF18BF0060E0
:10568000780F002080B588B000AFF860B9607A600C
:105690000123FB777B68BB617B687B61BB68013B57
:1056A000152B00F2998001A252F823F005570060F3
:1056B000D9570060D9570060D9570060D9570060AA
:1056C000D9570060D9570060D95700602D57006046
:1056D000715700609D570060B1570060C55700606A
:1056E000D9570060D9570060D9570060D95700607A
:1056F000D9570060D9570060D9570060D95700606A
:10570000D95700603C4B00221A723B4B0022DA72E0
:105710003A49022005F041FB0346002B5ED1364B8F
:105720005B7A1946F868FFF757FC57E07B691B78EE
:10573000002B06D1304B00221A722F4B0022DA7256
:1057400055E07B691B78012B0FD12B4B01221A727C
:105750007B691A78284BDA72274B5868284B5B888C
:10576000284A032105F0AEFA41E00523FB773EE02D
:10577000214B1B7ADBB2002B32D0BB691B881B0A82
:105780009BB2FB74BB691B88BB74FB7C012B27D8C5
:10579000FB7C194A1344BA7C1A7321E07B68002B06
:1057A00020D07968F868FFF789FB0346FB7719E09A
:1057B0007B68002B18D07968F868FFF793FB0346E5
:1057C000FB7711E07B68002B10D07968F868FFF751
:1057D000A3FB0346FB7709E000BF08E000BF06E03B
:1057E00000BF04E000BF02E000BF00E000BFFB7F9D
:1057F00018462037BD4680BD780F0020810F00205D
:1058000008000020A40F002080B500AFFFF766FD60
:10581000164B00225A72154B00221A72134B0022AB
:105820005A60124B00221A60104A11490220FFF7F9
:10583000B9FA0346002B03D00E48FCF777FE07E0C9
:105840000D48FCF773FE0A4B1B685B68074A536000
:1058500005F061FD094941F2883000F083FC034BFB
:105860001B68184604F0ABFF00BF80BD780F002016
:105870005401002048BF006064BF00600046C3239D
:1058800080B584B000AF0123FB72304B1B7ADBB2D2
:10589000012B56D12D4B9B7ADBB2012B51D12C4BD6
:1058A0001B68002B1DD02A4B1B68B3F1FF3F18D09B
:1058B0000023FB600DE0274B1B685A1C25490A603A
:1058C0002549FA680A441178244AD154FB68013307
:1058D000FB60FA681E4B1B689A42ECD31C4B0022FB
:1058E0001A601C4B1B68002B13D11D4B1B681A46FA
:1058F0001C491A4803F00AF9184805F054FF0346FA
:10590000144A13601848FCF711FE1849184800F0B3
:1059100029FC134B1B680133114A13600D4B1B68A4
:10592000002B0ED00B4B1B687B600A4B00221A60C9
:10593000064B58687B68094A022105F071F9034655
:10594000FB7200BF1037BD4680BD00BF780F00203E
:10595000A4130020A8130020A40F0020A4110020ED
:10596000AC13002088BF006094BF00600046C323D2
:10597000C027090080B400AF074BD3F8703203F0A2
:105980001003002B02D1054B1B6800E0044B1846A6
:10599000BD465DF8047B704700800D40B0130020C9
:1059A00000366E0180B582B000AF0346FB71FB7913
:1059B00083F00103DBB2002B02D11348FCF7ECFCAF
:1059C000124B4FF08042C3F8582100BF0F4BD3F861
:1059D000703203F48033002BF8D00C4B4FF480323C
:1059E000C3F8542100BF094BD3F8503103F40043EE
:1059F000002BF8D0054B4FF48032C3F8582100BF7C
:105A00000837BD4680BD00BF98BF006000800D40D4
:105A100080B483B000AF0346FB71FB79002B04D147
:105A2000074B1022C3F8742203E0054B1022C3F881
:105A3000782200BF0C37BD465DF8047B704700BF7D
:105A400000800D4080B400AF064BD3F87032054A99
:105A500043F00103C2F8703200BFBD465DF8047B1D
:105A6000704700BF00800D4080B485B000AF034692
:105A70003960FB71164BD3F88030154A43F00303AD
:105A8000C2F88030134BD3F84031124A43F002037E
:105A9000C2F840310023FB6003E000BFFB68013324
:105AA000FB60FB680C4A9342F7D90C4BD3F82031CA
:105AB0000B4A1A40094941F201731343C1F82031DE
:105AC000012318461437BD465DF8047B704700BFBC
:105AD00000C00F4000002E407F1A060000800D40DD
:105AE000FEE0FFFF80B584B000AF03463960FB7174
:105AF0000023BB81154B1B6903F40053002B06D018
:105B0000124B1B69114A43F04003136104E007F193
:105B10000C03184600F0A0F80D4B1B6B0C4A23F049
:105B2000004313630A4B1B6B094A23F08043136342
:105B3000074B00221A60064B1B6B054A43F4C61341
:105B40001363012318461037BD4680BD00800D4009
:105B500000900D4080B483B000AF7860154B1B6897
:105B600023F4E0327B681B799B039BB21343114AF9
:105B700043F4803313600F4B1A680F4B13407A685D
:105B8000126802F07F0213430A4A43F40053136081
:105B900000BF084B1B68002BFBDA064B1B68054A4D
:105BA00023F48033136000BF0C37BD465DF8047BDF
:105BB000704700BF00800D4080CFFFFF80B483B0EE
:105BC00000AF7860224B1B6B23F4E0327B681B7BB9
:105BD0009B039BB213431E4A43F4803313631C4B55
:105BE0001A6B1C4B13407A68127802F001021343BF
:105BF000174A43F4005313637B685B68144A23F02D
:105C0000404313657B689B68114A23F04043136649
:105C10007B685B8AC3F30E027B681B7CDB039BB251
:105C20001A437B68DB891B04094913430B6400BFDB
:105C3000074B1B6B002BFBDA054B1B6B044A23F451
:105C40008033136300BF0C37BD465DF8047B70479B
:105C500000800D40FECFFFFF80B483B000AF7860BE
:105C6000154B1B6923F4E0327B685B789B039BB286
:105C70001343114A43F4803313610F4B1A690F4BDE
:105C800013407A681278520002F0020213430A4A63
:105C900043F44153136100BF074B1B69002BFBDA30
:105CA000054B1B69044A23F48033136100BF0C3792
:105CB000BD465DF8047B704700800D40BDCFFFFFFF
:105CC00080B400AF034B00221A6200BFBD465DF8EE
:105CD000047B704700800D4080B400AF044B4FF44C
:105CE00080521A6700BFBD465DF8047B704700BF55
:105CF00000800D4080B400AF044B4FF48052C3F8D5
:105D0000E02000BFBD465DF8047B704700800D4079
:105D100090B58BB000AF7860B64B07F108040FCB9D
:105D200084E80F007968B44805F034FB034683F03B
:105D30000103DBB2002B01D00023D5E17968AE4826
:105D400005F046FB78627968AB4805F00AFB03462C
:105D5000002B01D07B6AC7E17B68A84A934200F020
:105D6000AE817B68A54A934200F2BA817B68A44A5F
:105D7000934200F094817B68A14A934200F2B08183
:105D80007B68A04A934200F07B817B689D4A9342E6
:105D900000F2A6817B689C4A934200F0E6807B6813
:105DA000994A934200F29C817B68984A93426ED054
:105DB0007B68964A934200F293817B68944A9342AF
:105DC00020D07B68924A934200F28A817B68914A94
:105DD000934200F077817B688E4A934200F2808183
:105DE0007B680D2B04D07B688B4A934241D077E1CE
:105DF000814B1B6803F07F037A6A02FB03F35B08A5
:105E00007B6270E17B6A07EE903AB8EE676B7A4B83
:105E10001B6D07EE903AB8EE677B26EE077B87EDA9
:105E2000067B754B1B6E07EE903AB8EE676B97EDED
:105E3000065B85EE067B87ED067B6F4B1B6B03F0E5
:105E40000103002B05D07B6A162202FB03F37B6261
:105E500005E07A6A13469B0013449B007B6297ED32
:105E6000067BFCEEC77B17EE902A7B6A13447B62AD
:105E700039E1614B1B6903F00203002B01D01622AC
:105E800000E014227B6A02FB03F37B622BE15A4B96
:105E90001B6F03F07F033B627B6A07EE903AB8EE1C
:105EA000676B554BD3F8803007EE903AB8EE677BBE
:105EB00026EE077B87ED067B4F4BD3F8903007EE3D
:105EC000903AB8EE676B97ED065B85EE067B87ED43
:105ED000067B7B6A3A6A02FB03F397ED067BFCEED6
:105EE000C77B17EE902A13447B62434B1B6F03F46E
:105EF000C013B3F5801F13D0B3F5801F0DD8002B4E
:105F000003D0B3F5002F04D007E07B6A9B087B62C7
:105F100007E07B6A5B087B6203E04048FCF73CFAE1
:105F200000BF354BD3F870213D4B13403C4A9342A0
:105F30000ED03B4A934213D8B3F5000F13D0B3F5FC
:105F4000000F0DD8002B0ED0B3F5004F04D007E0A2
:105F50007B6A9B087B6207E07B6A5B087B6203E0ED
:105F60003048FCF719FA00BFBDE0234BD3F8A0304E
:105F700003F07F033B627B6A07EE903AB8EE676BF3
:105F80001D4BD3F8B03007EE903AB8EE677B26EEA3
:105F9000077B87ED067B184BD3F8C03007EE903AAD
:105FA000B8EE676B97ED065B85EE067B87ED067BAB
:105FB0007B6A3A6A02FB03F397ED067BFCEEC77B34
:105FC00017EE902A13447B620B4BD3F8A03003F4F6
:105FD000C013B3F5801F2ED0B3F5801F28D8002B37
:105FE00003D0B3F5002F1FD022E07B6A9B087B62B1
:105FF00022E000BF2CC0006000800D401500E000D2
:106000001400E0000D00E0000D00A0000D00700085
:106010000D0030000D0020000D001000BCBF00601E
:1060200000808000D8BF00607B6A5B087B6203E071
:106030002F48FCF7B1F900BF2E4BD3F8703103F0B5
:106040004043B3F1404F0ED0B3F1404F13D8B3F1FA
:10605000004F13D0B3F1004F0DD8002B0ED0B3F189
:10606000804F04D007E07B6A9B087B6207E07B6A75
:106070005B087B6203E02048FCF78EF900BF32E04A
:106080001C4BD3F8E03003F003033B623B6A9B00F8
:1060900007F12802134453F8203C7B6223E0154BA0
:1060A000D3F8E0309B0803F003033B623B6A9B009C
:1060B00007F12802134453F8203C7B6213E00F4B96
:1060C0007B6210E00B4B1B6A03F00203002B01D034
:1060D000162200E014227B6A02FB03F37B6202E0DB
:1060E00000237B6200BF7B6A18462C37BD4690BDFB
:1060F000F4BF006000800D4010C0006040787D015A
:1061000080B485B000AF03460A46FB711346BB71ED
:10611000FB79FB60124BD3F80021FB68DB00BF2149
:1061200001FA03F3DB431340BB60FB68DB00802212
:106130009A400B49BB681343C1F80031BB7903F0A7
:106140003F02FB68DB009A400549BB681343C1F876
:10615000003100BF1437BD465DF8047B704700BFB7
:1061600000800D40F0B585B000AF786039607B6885
:10617000002B02D11E48FCF70FF97B6818464FF040
:1061800000013B681A464FF0000302FB01FC00FBD4
:1061900003F66644A0FB020173181946154A4FF036
:1061A000000305F099FC02460B46C7E90223D7E934
:1061B0000223012B08BF002A02D30F48FCF7ECF89A
:1061C000D7E902014FF003024FF0000305F084FC11
:1061D00002460B46941843EB0305C7E90245BB682A
:1061E000184605F00FF900BF1437BD46F0BD00BFDB
:1061F0003CC0006040420F0060C0006080B586B0C7
:1062000000AF03460A46FB8013467B71B7F90630A0
:106210001B0A7B61FB8803F01F033B617B69072B33
:1062200002D90D48FCF7B8F87B699A000B4B134470
:10623000FB60FB681A6803213B6901FA03F3DB4347
:106240001A4079793B6901FA03F31A43FB681A6033
:1062500000BF1837BD4680BD88C0006068C00F40D1
:1062600080B584B000AF78600023FB6009E00D4A80
:10627000FB6852F823307A689A4206D0FB680133F3
:10628000FB60FB68082BF2D900E000BFFB68082B1D
:1062900002D90548FCF780F8FB6818461037BD4660
:1062A00080BD00BFACC00060E4C0006080B58CB0B1
:1062B00000AFF860B9607A60BB68002B02D1A248D9
:1062C000FCF76AF8BB681B68002B02D19F48FCF7FB
:1062D00063F8BB681B7A042B02D99D48FCF75CF875
:1062E000BB685B7A042B02D99A48FCF755F8002367
:1062F000FB62BB681B68FB61002387F82330002327
:10630000FB84042387F8223041E07A6813469B001F
:1063100013445B001946BB681B6897F8222002FBF8
:1063200003F3B1FBF3F305338B4AA2FB0323DB0832
:10633000BB84BB8C002B01D10123BB8497F8223096
:10634000BA8C02FB03F37A68B2FBF3F37B61BB68A0
:106350001B687A699A4204D9BB681B687A69D31AA8
:1063600003E0BB681A687B69D31A3B613A69FB6931
:106370009A4207D83B69FB6197F8223087F82330AF
:10638000BB8CFB8497F82230013387F8223097F8D2
:106390002230202BB9D9BB681B68704AA2FB0323AB
:1063A0005A0913465B001344FA699A4203D940F232
:1063B0002153FB62FCE0F868FFF752FFB861684ABE
:1063C000BB6932F91330184605F02CF8F86805F06F
:1063D00038F8FB681B69BB6297F82330032B07D999
:1063E00097F82330072B03D8BB6A43F40033BB6212
:1063F000BB6A23F0F853BB6297F82330013B1B06BE
:1064000003F0F853BA6A1343BB62BA6A554B1340A0
:10641000BB62FB8CC3F30C02BB6A1A43FB681A61B4
:10642000FB681B6923F00052FB681A61FB689A69DC
:106430004D4B1340BB62BB681B791A46BB68DB7BC4
:106440001B0203F4E0631A43BB689B7B9B0003F0D1
:1064500004031343BA6A1343BB62BB685B79012B25
:106460000DD1BB681B79002B04D0BB6A23F40063F9
:10647000BB620CE0BB6A43F40063BB6207E0BB682D
:106480001B79002B03D0BB6A43F01003BB62FB688F
:10649000BA6A9A61FB681B6923F40053BB62BB684C
:1064A000DB795B0303F40052BB6A1A43FB681A6191
:1064B000BB685B7A1B04BA68127A1A43FB68DA621B
:1064C000FB689B6A43F08802FB689A62FB689B6AE0
:1064D00043F44042FB689A62244BBB62BB6A43F0C0
:1064E0000043BB62BB6A43F44043BB62FB685A6A29
:1064F000BB685B7B1B0103F01001BB681B7B5B016E
:1065000003F020030B431A43FB685A62BB689B7A73
:10651000002B05D0FB685B6A43F00802FB685A62F7
:10652000BB68DB7A002B05D0FB685B6A43F0010295
:10653000FB685A62BB689B79002B19D0BB6A43F099
:106540000053BB6218E000BF20C1006044C100607E
:1065500074C10060D0C10060CDCCCCCC1F85EB51A4
:10656000D0C0006000E0FFFFE8F8FFFF00001F4020
:10657000BB6A23F00053BB62FB685A69BB6A1A43CB
:10658000FB685A61FB689B69BB62BB681B7C002B84
:1065900003D0BB6A43F40023BB62BB685B7C002B67
:1065A00003D0BB6A43F48023BB62FB68BA6A9A617A
:1065B000FB6A18463037BD4680BD00BF80B582B04B
:1065C00000AF78607B68002B02D11D48FBF7E4FE2A
:1065D00014220021786805F0ABF87B684FF4E132B3
:1065E0001A607B6800221A717B6800225A717B68EE
:1065F00000229A717B680022DA717B6800221A728D
:106600007B6800225A727B6800229A727B680022A3
:10661000DA727B6800225A737B6800221A737B68E7
:1066200000229A737B680022DA737B6800221A7456
:106630007B6800225A7400BF0837BD4680BD00BF8A
:106640002CC2006080B586B000AFF860B9607A6097
:10665000BB68002B02D11448FBF79EFEBB687B6130
:106660007B683B6111E000BFFB685B6903F40003DA
:10667000002BF9D07B691B781A46FB68DA617B69CD
:1066800001337B613B69013B3B613B69002BEAD1F4
:1066900000BFFB685B6903F48003002BF9D0002383
:1066A00018461837BD4680BD50C2006080B500AFA7
:1066B000054B1B68054A5268114605489847BFF3C9
:1066C0004F8F00BF00BF80BDDC130020B813002037
:1066D0000040184080B500AF054B1B68054A926822
:1066E000114605489847BFF34F8F00BF00BF80BDDC
:1066F000DC130020B81300200080184080B500AFE4
:10670000054B1B68054AD268114605489847BFF3F8
:106710004F8F00BF00BF80BDDC130020B8130020E6
:1067200000C0184080B500AF054B1B68054A1269D0
:10673000114605489847BFF34F8F00BF00BF80BD8B
:10674000DC130020B81300200000194080B500AF12
:10675000054B1B68054A5269114605489847BFF327
:106760004F8F00BF00BF80BDDC130020B813002096
:106770000040194080B500AF054B1B68054A92697F
:10678000114605489847BFF34F8F00BF00BF80BD3B
:10679000DC130020B81300200080194080B500AF42
:1067A000054B1B68054AD269114605489847BFF357
:1067B0004F8F00BF00BF80BDDC130020B813002046
:1067C00000C0194080B500AF054B1B68054A126A2E
:1067D000114605489847BFF34F8F00BF00BF80BDEB
:1067E000DC130020B813002000001A4080B584B0EC
:1067F00000AF6D4BD3F888306B4A43F47003C2F896
:106800008830694B694A9A60694B1B899BB2684A18
:1068100023F001039BB21381664B1B899BB2654A2F
:1068200023F001039BB21381614B1B889BB203F0E1
:106830000403002B07D05E4B1B889BB25C4A23F0FD
:1068400004039BB213805B4B1B889BB203F00403D1
:10685000002B07D0574B1B889BB2564A23F00403EA
:106860009BB21380544B1B6803F40053002B03D0DE
:10687000514B524A5A6007E04F4B4CF220525A603B
:106880004D4B4DF628125A604B4B4FF6FF729A60F3
:10689000494B1B6823F0A003474A43F020031360D1
:1068A000474B1B6803F00103002B05D0444B1B68CA
:1068B000434A23F0010313603B4B5B6903F400334D
:1068C000B3F5003F22D0384B5B6903F40033002B53
:1068D0001BD1BFF34F8F00BFBFF36F8F00BF324B91
:1068E0000022C3F85022BFF34F8F00BFBFF36F8F5A
:1068F00000BF2D4B5B692C4A43F400335361BFF357
:106900004F8F00BFBFF36F8F00E000BF264B5B6966
:1069100003F48033B3F5803F3FD0234B5B6903F42E
:106920008033002B38D1204B0022C3F88420BFF3E2
:106930004F8F00BF1C4BD3F88030FB60FB685B0BB4
:10694000C3F30E03BB60FB68DB08C3F309037B6082
:10695000BB685A0143F6E07313407A689207124904
:106960001343C1F860327B685A1E7A60002BEFD166
:10697000BB685A1EBA60002BE5D1BFF34F8F00BF32
:10698000094B5B69084A43F480335361BFF34F8F6F
:1069900000BFBFF36F8F00E000BF04F068FD00BFD1
:1069A0001037BD4680BD00BF00ED00E00020006054
:1069B00000800B4000000D4000C00B4020C528D9CE
:1069C00010E000E080B58AB000AF786039607B6885
:1069D000002B02D13648FBF7DFFC3B68002B02D1CD
:1069E0003448FBF7D9FC3B681B7B082B02D93248A3
:1069F000FBF7D2FC3B681B7B1A46304B53F8223026
:106A0000002B02D12E48FBF7C7FC07F10C031846F8
:106A1000FFF7D4FD3B685B68FB603B681B7A012B8A
:106A200002D102233B7408E03B681B7A022B02D19F
:106A300003233B7401E000233B743B685B7A012B2A
:106A400002D10123FB7401E00023FB743B689B7AB5
:106A5000002B14BF01230023DBB27B773B68DB7A7A
:106A6000002B14BF01230023DBB23B773B681B7B69
:106A70001A46124B53F822003B681A6807F10C03C0
:106A80001946FFF713FC78627B6A002B04D0786A02
:106A900004F0F4FC034606E07B683B623B681A7B2B
:106AA0003B6A1A70002318462837BD4680BD00BFD8
:106AB00098C20060B8C20060D8C2006074C20060B2
:106AC0003CC3006080B586B000AFF860B9607A6002
:106AD000FB68002B02D11048FBF75EFCBB68002B63
:106AE00002D10E48FBF758FC7B68002B02D10C4802
:106AF000FBF752FCFB687B617B691B781A46094BEC
:106B000053F822307A68B9681846FFF79BFD0023D6
:106B100018461837BD4680BD7CC300609CC300602A
:106B2000BCC3006074C2006080B586B000AFF8607E
:106B3000B9607A60FB68002B02D11248FBF72CFC8D
:106B4000BB68002B02D11048FBF726FC7B68002BAA
:106B500002D10E48FBF720FCFB687B617B691B6858
:106B60003B613B69002B02D10948FBF715FC7B68B0
:106B7000BA687969386904F0B3FC034618461837D7
:106B8000BD4680BDDCC3006000C4006020C400605E
:106B900040C4006080B584B000AF7860396043F2D3
:106BA0002153FB813B68002B02D11548FBF7F4FB16
:106BB0007B68002B02D11348FBF7EEFB7B68BB60C0
:106BC00010220021B86804F0B3FD3B681A78BB6856
:106BD0001A733B681B78012B0BD1BB6803F10802C9
:106BE0003B685B681946104600F07AF80346FB8163
:106BF00000E000BFFB8918461037BD4680BD00BFCE
:106C000060C4006080C4006080B586B000AF78606A
:106C100039607B68002B02D11248FBF7BDFB3B6853
:106C2000002B02D11048FBF7B7FB7B687B613B6808
:106C30003B6104220021386804F07AFD04F02FFC47
:106C4000F8607B695B685A1C7B695A60F86804F0DD
:106C500037FC3B697A691A60002318461837BD462D
:106C600080BD00BFA8C40060D0C4006080B586B0FD
:106C700000AF786039607B68002B02D11648FBF7C3
:106C80008BFB3B68002B02D11448FBF785FB7B682C
:106C90007B613B683B6104F002FCF8607B691B6828
:106CA000002B05D0F86804F00BFC43F222530EE0F1
:106CB0007B693A691A60F86804F002FC042200213A
:106CC000386804F035FD3B697A691A60002318467C
:106CD0001837BD4680BD00BFF8C4006020C5006005
:106CE00080B588B000AF786039603B68002B02D176
:106CF0001948FBF751FB7B68002B02D11748FBF7C3
:106D00004BFB3B68FB617B68BB61FB695B68FB60BD
:106D1000FB691B7A3B74FB695B7A7B74FB69DB7AEA
:106D2000BB74FB691B7BFB74FB691B68BB60FB6965
:106D30009B7A3B75BB6907F1080211461846FFF7BD
:106D400041FE0346002B02D043F2215300E0002312
:106D500018462037BD4680BD44C500606CC5006044
:106D600080B586B000AFF860B9607A60FB68002B30
:106D700002D10E48FBF710FBBB68002B02D10C4878
:106D8000FBF70AFB7B68002B02D10A48FBF704FBE8
:106D9000FB687B617B697A68B9681846FFF792FEE9
:106DA000034618461837BD4680BD00BF94C5006035
:106DB000BCC50060E0C5006080B584B000AF7860FD
:106DC0007B68FB607B68002B02D10A48FBF7E4FA82
:106DD000FB6800225A72FB6800221A72FB680022CC
:106DE0001A60FB6800225A60002318461037BD461F
:106DF00080BD00BF04C6006080B584B000AF78607D
:106E00007B68002B02D10748FBF7C6FA7B68FB6062
:106E10000C220021F86804F08BFC00231846103780
:106E2000BD4680BD30C6006080B483B000AF7860DE
:106E30000B4A7B6843F0010353600A4B5B6A094AC3
:106E400043F480335362BFF34F8F00BFBFF36F8FA4
:106E500000BF00BF0C37BD465DF8047B704700BF24
:106E600090ED00E000ED00E080B400AFBFF35F8F75
:106E700000BF084B5B6A074A23F480335362064B1A
:106E80005B68054A23F00103536000BFBD465DF80F
:106E9000047B704700ED00E090ED00E080B483B02B
:106EA00000AF78607B68DAB20C4B13441A687B68D9
:106EB0005B0BC3F30C017B681B0A03F01F0301FA91
:106EC00003F31A407B681B0A03F01F0322FA03F343
:106ED00018460C37BD465DF8047B704700C00F4074
:106EE00080B483B000AF78607B68DAB20C4B134497
:106EF0001A687B685B0BC3F30C017B681B0A03F009
:106F00001F0301FA03F31A407B681B0A03F01F03F7
:106F100022FA03F318460C37BD465DF8047B704730
:106F200000C00F4080B400AF074BD3F8703203F0BD
:106F30001003002B02D1054B1B6800E0044B1846E0
:106F4000BD465DF8047B704700800D40B013002003
:106F500000366E0190B583B000AF1348FFF79EFF77
:106F60000346002B10D11148FEF7D2FE0346104A0B
:106F7000A2FB03239C080F48FFF7B2FF034601332F
:106F8000B4FBF3F37B600AE0FFF7CCFF044609484B
:106F9000FFF7A6FF03460133B4FBF3F37B607B6886
:106FA00018460C37BD4690BD242600800D00100009
:106FB000ABAAAAAA24E00780F0B587B000AFA64B21
:106FC0003B61A64A3B69D31AFB6000237B61A44B5B
:106FD0005B6903F40033B3F5003F16D1BFF34F8F65
:106FE00000BFBFF36F8F00BF9D4B5B699C4A23F4CA
:106FF000003353619A4B0022C3F85022BFF34F8FE6
:1070000000BFBFF36F8F00BF00BF954B5B6903F4F8
:107010008033B3F5803F30D1914B0022C3F88420F8
:10702000BFF34F8F00BF8E4B5B698D4A23F48033D3
:107030005361BFF34F8F00BF894BD3F88060730B50
:10704000C3F30E04F308C3F30905620143F6E073CA
:107050001340AA0782491343C1F874322B465D1EC0
:10706000002BF2D123465C1E002BEBD1BFF34F8FD8
:1070700000BFBFF36F8F00BF00BFFFF7F5FE794B76
:107080001022DA60774B784A1A61764B774ADA60D9
:10709000744B774A1A61734B764ADA60714B744AC3
:1070A0001A61704B744ADA606E4B744A1A616D4B08
:1070B0001422DA606B4B724A1A616A4B1522DA604D
:1070C000684B704A1A61674B6F4ADA60654B6D4ACC
:1070D0001A61644B6D4ADA60624B6D4A1A61614B0A
:1070E0006C4ADA605F4B6C4A1A615E4B6B4ADA603D
:1070F0005C4B6B4A1A6102E07B6901337B61FA6881
:107100007B6922FA03F3012BF6D87B69002B2DD083
:107110003B69FA68B3FBF2F2F96801FB02F29B1AD1
:10712000002B02D05F48FBF737F901227B6902FA96
:1071300003F31A46FB68934202D05B48FBF72CF935
:107140007B69042B02D85948FBF726F93B6923F0E9
:107150001F03444A43F01A03D3607B69013B5B0081
:1071600003F03E023F49524B13430B613D4B514AE2
:10717000DA603C4B504A1A613A4B504ADA60394B5C
:107180004F4A1A610420FFF74FFE354B5B6903F449
:107190008033002B38D1324B0022C3F88420BFF358
:1071A0004F8F00BF2E4BD3F88030BB60BB685B0BAA
:1071B000C3F30E037B60BB68DB08C3F309033B60CA
:1071C0007B685A0143F6E07313403A6892072449FA
:1071D0001343C1F860323B685A1E3A60002BEFD16E
:1071E0007B685A1E7A60002BE5D1BFF34F8F00BF3A
:1071F0001B4B5B691A4A43F480335361BFF34F8FD3
:1072000000BFBFF36F8F00E000BF154B5B6903F455
:107210000033002B1BD1BFF34F8F00BFBFF36F8F25
:1072200000BF0F4B0022C3F85022BFF34F8F00BFA7
:10723000BFF36F8F00BF0A4B5B69094A43F4003309
:107240005361BFF34F8F00BFBFF36F8F00E000BFEC
:1072500000BF1C37BD46F0BD0000E0810000008289
:1072600000ED00E090ED00E03F0010101100008004
:107270003900100312000060130000602D000306A7
:107280003B001003210003031600002017002020FC
:1072900025000303180028202300030319000080A1
:1072A000310003035CC6006084C60060B0C60060A5
:1072B000010008031B0000402B0010031C000042CB
:1072C0002700100380B584B000AF786039607B6818
:1072D0009B0EFB607B68DAB21F4B13441A687B6815
:1072E0005B0BC3F30C017B681B0A03F01F0301FA5D
:1072F00003F3DB4302EA03017B681B0A03F01F036D
:107300003A689A407B685B0BC3F30C007B681B0AEE
:1073100003F01F0300FA03F31A407B68D8B20E4B48
:107320000344184641EA02030360FB68202B02D99C
:107330000A48FBF731F8FB68202B09D000BF064B49
:107340009A6CFB6822FA03F303F00103002BF6D1D9
:1073500000BF1037BD4680BD00C00F40C8C60060EA
:1073600080B584B000AF786039607B689B0EFB60AD
:107370007B68DAB21F4B13441A687B685B0BC3F35C
:107380000C017B681B0A03F01F0301FA03F3DB43C4
:1073900002EA03017B681B0A03F01F033A689A4064
:1073A0007B685B0BC3F30C007B681B0A03F01F03B5
:1073B00000FA03F31A407B68D8B20E4B0344184618
:1073C00041EA02030360FB68202B02D90A48FAF75E
:1073D000E3FFFB68202B09D000BF064B9A6C01210C
:1073E000FB6801FA03F31340002BF6D100BF1037FE
:1073F000BD4680BD00C00F4060C7006080B586B04C
:1074000000AF03460A46FB8013467B71B7F906308E
:107410001B0A7B61FB8803F01F033B617B69072B21
:1074200002D90D48FAF7B8FF7B699A000B4B134459
:10743000FB60FB681A6803213B6901FA03F3DB4335
:107440001A4079793B6901FA03F31A43FB681A6021
:1074500000BF1837BD4680BDF8C7006068C00F4048
:1074600080B483B000AF7860044A7B68136000BFCB
:107470000C37BD465DF8047B704700BFB013002099
:1074800080B483B000AF7860044A7B68136000BFAB
:107490000C37BD465DF8047B704700BFB413002075
:1074A00080B485B000AFF860B9601346FB71BA686C
:1074B0000C4B1340BB60FB79002B06D0FB685A686D
:1074C000BB681A43FB685A6006E0FB685A68BB68F1
:1074D000DB431A40FB685A6000BF1437BD465DF8B5
:1074E000047B704700F0FFFF80B485B000AF786088
:1074F0000B46FB701346BB707B689A680A4B1340BF
:10750000FB60FB789B0603F08062FB681A43BB7844
:107510001B0403F47F031A437B689A6000BF14378F
:10752000BD465DF8047B7047FFFF00FB80B582B06D
:1075300000AF4FF40040FFF7A3FFDD4BD3F8C0329C
:10754000DB4A43F48033C2F8C032D94BD3F8C0329F
:10755000D74A23F40033C2F8C032D648FFF780FF81
:107560000020FEF71FFAFEF76DFA0120FEF750FA31
:10757000D14B1B6823F0FF03CF4A43F07F03136016
:107580000121CE48FFF79EFE0121CD48FFF79AFE6C
:10759000CC4BDB6823F01F03CA4A43F01303D360CC
:1075A00000BFC84B1B6803F00043B3F1004FF8D194
:1075B0000021C548FFF7D4FE4FF4887004F006F8A8
:1075C0004FF4847004F002F840F2162003F0FEFF3E
:1075D0004FF4067003F0FAFF40F20E2003F0F6FFBE
:1075E0000321BA48FFF7BCFE0121B948FFF7B8FEF6
:1075F0000021B848FFF7B4FE4FF48A7003F0E6FFAD
:107600004FF48B7003F0E2FF182003F0DFFF1A2025
:1076100003F0DCFF4FF4867003F0D8FF0121AE4881
:10762000FFF79EFE40F2026003F0D0FF0121AB485D
:10763000FFF796FE0021AA48FFF744FE40F20460DF
:1076400003F0C4FF0121A748FFF78AFE0021A648E6
:10765000FFF738FE4FF4417003F0B8FF07214FF2F7
:107660001400FFF77DFE0021A048FFF72BFE00214C
:107670009F48FFF727FE40F2027003F0A7FF0121A9
:107680009C48FFF76DFE01219B48FFF71BFE40F26F
:10769000022003F09BFF01219848FFF761FE0021C3
:1076A0009748FFF70FFE4FF4807003F08FFF4FF401
:1076B000817003F08BFF4FF4827003F087FF4FF46B
:1076C000837003F083FF04218E48FFF749FE0221F7
:1076D0008D48FFF7F7FD162003F078FF03218B4854
:1076E000FFF73EFE00218A48FFF7ECFD40F2125002
:1076F00003F06CFF03218748FFF732FE0121864823
:10770000FFF72EFE00218548FFF7DCFD40F2145004
:1077100003F05CFF03218248FFF722FE012181482C
:10772000FFF71EFE00218048FFF7CCFD40F2165007
:1077300003F04CFF03217D48FFF712FE01217C4836
:10774000FFF70EFE00217B48FFF7BCFD40F206204C
:1077500003F03CFF4FF4027003F038FF40F20A20C0
:1077600003F034FF00217448FFF7FAFD002173484D
:10777000FFF7A8FD0E2003F029FF122003F026FFDB
:1077800040F2067003F022FF102003F01FFF1420C8
:1077900003F01CFF4FF4E16003F018FF012168487B
:1077A000FFF7DEFD02216748FFF78CFD4FF4A36071
:1077B00003F00CFF1C2003F009FF0C2003F006FF70
:1077C0004FF48C7003F002FF40F2023003F0FEFE33
:1077D00040F2063003F0FAFE40F21A5003F0F6FED3
:1077E00040F20E6003F0F2FE00215748FFF7B8FDAB
:1077F00000215648FFF766FD40F20A3003F0E6FE2E
:1078000001215348FFF7ACFD03215248FFF7A8FDC3
:1078100005215148FFF756FD40F20E5003F0D6FE09
:1078200001214E48FFF79CFD07214D48FFF798FDC9
:1078300003214C48FFF746FD40F2025003F0C6FE1C
:1078400001214948FFF78CFD07214848FFF788FDD3
