:0200000460009A
:10000000464346420004015600000000010303007D
:1000100000000000000000000000000000000000E0
:1000200000000000000000000000000000000000D0
:1000300000000000000000000000000000000000C0
:1000400000000000000406000000000000000000A6
:100050000000800000000000000000000000000020
:100060000000000000000000000000000000000090
:100070000000000000000000000000000000000080
:10008000EB04180A063204260000000000000000FD
:100090000000000000000000000000000000000060
:1000A0000000000000000000000000000000000050
:1000B0000000000000000000000000000000000040
:1000C0000000000000000000000000000000000030
:1000D0000000000000000000000000000000000020
:1000E0000000000000000000000000000000000010
:1000F0000000000000000000000000000000000000
:1001000000000000000000000000000000000000EF
:1001100000000000000000000000000000000000DF
:1001200000000000000000000000000000000000CF
:1001300000000000000000000000000000000000BF
:1001400000000000000000000000000000000000AF
:10015000000000000000000000000000000000009F
:10016000000000000000000000000000000000008F
:10017000000000000000000000000000000000007F
:10018000000000000000000000000000000000006F
:10019000000000000000000000000000000000005F
:1001A000000000000000000000000000000000004F
:1001B000000000000000000000000000000000003F
:1001C000000100000010000000000000000000001E
:1001D000000001000000000000000000000000001E
:1001E000000000000000000000000000000000000F
:1001F00000000000000000000000000000000000FF
:10020000FFFFFFFFFFFFFFFFFFFFFFFFFFFFFFFFFE
:10021000FFFFFFFFFFFFFFFFFFFFFFFFFFFFFFFFEE
:10100000D10020410020006000000000000000002E
:1010100020100060001000600000000000000000D0
:10102000000000600000800000000000FFFFFFFFE4
:10103000FFFFFFFFFFFFFFFFFFFFFFFFFFFFFFFFC0
:10104000FFFFFFFFFFFFFFFFFFFFFFFFFFFFFFFFB0
:10105000FFFFFFFFFFFFFFFFFFFFFFFFFFFFFFFFA0
:10106000FFFFFFFFFFFFFFFFFFFFFFFFFFFFFFFF90
:102000000000022009230060512300606373006018
:102010005523006057230060592300600000000032
:102020000000000000000000000000005B230060D2
:102030005D230060000000005F23006061230060FA
:10204000836E00608B6E0060936E00609B6E00601C
:10205000A36E0060AB6E0060B36E0060BB6E00608C
:10206000C36E0060CB6E0060D36E0060DB6E0060FC
:10207000E36E0060EB6E0060F36E0060FB6E00606C
:10208000036F00600B6F0060136F00601B6F0060D8
:10209000236F00602B6F0060336F00603B6F006048
:1020A000436F00604B6F0060536F00605B6F0060B8
:1020B000636F00606B6F0060736F00607B6F006028
:1020C000836F00608B6F0060936F00609B6F006098
:1020D000A36F0060AB6F0060B36F0060BB6F006008
:1020E000C36F0060CB6F0060D36F0060DB6F006078
:1020F000E36F0060EB6F0060F36F0060FB6F0060E8
:10210000037000600B700060137000601B70006053
:10211000237000602B700060337000603B700060C3
:10212000437000604B700060537000605B70006033
:10213000637000606B700060737000607B700060A3
:10214000837000608B700060937000609B70006013
:10215000A3700060AB700060B3700060BB70006083
:10216000C3700060CB700060D3700060DB700060F3
:10217000E3700060EB700060F3700060FB70006063
:10218000037100600B710060137100601B710060CF
:10219000237100602B710060337100603B7100603F
:1021A000437100604B710060537100605B710060AF
:1021B000637100606B710060737100607B7100601F
:1021C000837100608B710060937100609B7100608F
:1021D000A3710060AB710060B3710060BB710060FF
:1021E000C3710060CB710060D3710060DB7100606F
:1021F000E3710060EB710060F3710060FB710060DF
:102200008D73006021360060037200600B72006005
:10221000137200601B720060237200602B720060FA
:10222000337200603B720060437200604B7200606A
:10223000537200605B720060637200606B720060DA
:10224000737200607B720060837200608B7200604A
:10225000937200609B720060A3720060AB720060BA
:10226000B3720060BB720060C3720060CB7200602A
:10227000D3720060DB720060E3720060EB7200609A
:10228000F3720060FB720060037300600B73006008
:10229000137300601B730060237300602B73006076
:1022A000337300603B730060437300604B730060E6
:1022B000537300605B7300605C7C00600000002072
:1022C000640100005C7C0060000000000000000071
:1022D0005C7C006000002020000000005C7C00604E
:1022E0000000E0810000000000080020A00C0000B9
:1022F000000000000000000000002020000000009E
:102300000000E0810000000038B572B60D4C01F00D
:10231000F3FD0D4DAC4206D30C4DAC420BD362B66F
:1023200005F0EFF8FEE7D4E900010C3454F8042C72
:1023300000F018F8EEE754F8080B54F8041C00F00D
:102340001AF8EAE7B8220060E8220060082300607B
:10235000FEE7FEE7FEE7FEE7FEE7FEE7FEE7FEE755
:10236000FEE7FEE7002310B5934200D310BD1C58D2
:102370005C500433F8E700231A468B4200D37047C1
:102380001A500433F9E7FFFF084B1B6810B50C46E1
:1023900053B10A460146064805F067F800280CBF0D
:1023A00020464FF0FF3010BD1846FCE7780E0020A5
:1023B000900E002010B586B0CDE902310123002136
:1023C0008DF812009A42ADF810108DF813308DF888
:1023D00014308DF800201AD10E4C02AB1C2220467E
:1023E000019305F095F869462046246104F0FDFF4D
:1023F00004F11401206905F00DF804F118012069B9
:1024000005F01BF82269044B1A6006B010BD43F2B8
:102410002150FAE77C0E0020780E00200FB400B5A2
:10242000A3B000217C2203A8029105F071F8094BAA
:10243000186850B125A9084B02AA2498019100F010
:102440000DF8014602A8FFF79FFF23B05DF804EBEB
:1024500004B07047780E00200D5B00602DE9F04F4E
:102460001F468DB00023054616460C464FF00A095C
:10247000DFF8DCA102932A78002A00F0E580252A03
:1024800031D0012302A930460135B847F3E709FBF3
:1024900008381546A8F130086B786A1CA3F13001A2
:1024A0000929F4D92E2B05D1154612F8013F303BEE
:1024B000092BF9D96A78642A01D0692A2AD1002324
:1024C000206803AA8DF80C3080B9302301218DF8E3
:1024D0000D3002AB04340A44CDE900633B4640466C
:1024E00003F031FB1EE04FF00008D5E74FF0010C80
:1024F0000346614690FBF9F009FB1033002BB6BF91
:10250000DB433033313302F80C300CF1010C00287E
:10251000EED1DEE702F0DF03462B05D1073424F0CD
:10252000070408340235A6E7582B15D1002320688C
:102530000DF10C0C8DF80C30D8B9302301218DF839
:102540000D3002AB0CEB010240460434CDE90063D0
:102550003B4603F0F8FAE5E7A2F16203DBB2132B86
:1025600070D82AFA03F3DB0719D56F2A34D1082073
:1025700038E0782A4FF0010214BF4FF0370E4FF0C9
:10258000570E00F00F0300091146092B94BF30339A
:1025900073440CF8023001320028F2D1D1E7632AEB
:1025A00048D0732A4ED154F804BBBBF1000FB9D008
:1025B00058460BF1FF3B04F0E6FF2022A8EB000396
:1025C00002A93046B8471BF8012F002AAAD00123E0
:1025D00002A93046B847F6E7622A16D0702A0CBF27
:1025E00010200A20002322680DF10C0C8DF80C300D
:1025F0006AB9302301218DF80D3002AB04340CEBA5
:102600000102CDE900633B4669E70220EAE74FF0AB
:10261000010E93467146B2FBF0F200FB12B3092B98
:1026200094BF3033373383450CF80E300EF1010E72
:10263000EFD2E2E754F8042B0123D2B202A93046CC
:10264000B8476FE70123F9E702980DB0BDE8F08FB6
:102650000160080030B51A4B87B005466C46012D65
:1026600093E8070006AB84E8070003E9070002D8F7
:10267000002007B030BDAB1EDBB2012B09D9AB1F68
:10268000DBB2012B05D9A5F10A03DBB2012B88BF10
:102690002B460022114654F8040B28B106AD05EB79
:1026A0008205013245F80C0C01310329F3D1934224
:1026B000DED806AA02EB830353F80C0CD9E700BF5F
:1026C0008C7A00602DE9F04F0C461F46CB0989B08B
:1026D00049000546059201F01E01039341EAD41B0F
:1026E000002800F0F68083684FEA8B1803EB8B1309
:1026F00093F8386016F0010600F0ED8090F856303F
:10270000A3B907F57F5307A83F33B3F5804F2CBF1C
:102710004FEA93394FF0010904F0CFFE95F854C009
:10272000CC4507D20226079804F0CCFE304609B00B
:10273000BDE8F08F4FF00009D5F810A005EB8B0134
:10274000CE46DAF80020B7F5804F02983B4601925A
:10275000524628BF4FF480430497BEF1000F08BFD4
:102760001046DDF804A00CF1FF3CFF1A02904FF078
:1027700001005FFA8CFC10604FF00000506005987B
:1027800070449060906800F5805020F47F6020F0E5
:102790000F00D060D06800F580501061106900F51E
:1027A00080505061506900F580509061506863F32B
:1027B0001E405060D069D2F808B063F31E30CBF3EE
:1027C0000B0BD06120F0004020F47F6020F00F0060
:1027D00040EA0B00D06103D1506840F400405060E3
:1027E00050684FF0800B9E446BF307005060486BBD
:1027F00000283BD002604A63002FA2D1019A14F056
:102800000F0185F854C02A611CD1039AD2B1AA687D
:1028100002EB080090F83800800713D5049888B1BF
:10282000D08E98420ED952F80800C0F30A40B3FB8C
:10283000F0FC00FB1C332BB952F8083067F35D73D2
:1028400042F80830E4080123079804F010040C4310
:1028500003FA04F46B68B9F1000F1FD1D3F8B0216B
:10286000224207D0002604F02DFE5FE7B1464A6100
:102870004A63C1E7D3F8402142F48052C3F84021B3
:10288000D3F8B811D3F84021D204F3D5D3F84021BE
:102890000C4222F48052C3F84021E3D1AA6890444C
:1028A000029AC8F808200022C8F80C200B4AC3F886
:1028B000B041D3F8B8112142D4D1013A02D104F089
:1028C00001FE33E7D3F8BC112142CBD1C3F8B041AC
:1028D000EFE703262AE7012628E700BF8096980045
:1028E0002DE9FF4702EB4109002541EAC2120646E5
:1028F00000EB8908DFF8B4A04FEA8919D8F8144032
:10290000D7B224F01F04CDE9015514B904B0BDE8D5
:10291000F087019B3BB9A368A28B03EA0A03C2F3C9
:102920000B021343019363681A0638D4E2696168A5
:10293000C2F31233029AC1F30E415B1A1344D8F862
:1029400034200293D8F8143093422BD1C8F8145095
:102950000122C8F83450B3684B449A60DD60636864
:102960001B0404D4D8F8143033F01F0309D101A993
:1029700030688DF80C708DF80D5003F0F7FECDE93E
:10298000015533696560236096F854303461013332
:1029900086F85430D8F8144024F01F04B5E74FF0FF
:1029A000FF33CCE71B68C8F81430D8E700F0FFFF0E
:1029B000254B73B5841E009303F5007316460193EF
:1029C000E3B2012B3AD8214B1D78002D38D10122DA
:1029D0001A701F4B1F4A83F85700DA601E4A9A602C
:1029E00002AA02EB840454F8080C1C46D0F84021DB
:1029F000586042F00202C0F84021D0F840319B07F5
:102A0000FBD4D0F8243103F01F0213F01C0F84F81C
:102A1000552017D0D0F8A831216023F00303C0F867
:102A2000A831D0F8A83143F00203C0F8A831084813
:102A300003F0E1F83460284602B070BD0625FAE7DD
:102A40000325F8E70125F6E700002E409C1400203E
:102A5000980E0020000C00200008002008B9032078
:102A600070470B4B984202D10A4B00221A70436800
:102A70000020C3F84801D3F8402122F00102C3F836
:102A80004021D3F8402142F00202C3F840217047B0
:102A9000980E00209C1400202DE9F04F4FEAD10839
:102AA00001F00F034D0085B008F010080F4605F047
:102AB0001E05814648EA03034FF0010845EAD11597
:102AC00008FA03F8002877D00FFA85FA684609EB70
:102AD000850504F0F2FC00216C694FF0FF3324F00F
:102AE0001F042646CDE9011396B9DFF8D0B0BCB972
:102AF000D9F8083003EB8A1A0123CAF80830CAF85B
:102B00000C40009804F0DEFC002005B0BDE8F08F1A
:102B1000F27F42F08002F277366826F01F06E3E784
:102B200094F91F30002BECDA63681A0611D5D9F836
:102B30000430D3F8B42142EA0802C3F8B421D3F830
:102B4000B42112EA080FFAD1D3F8B82112EA080F1B
:102B5000EFD1019B3BB9A368A28B03EA0B03C2F33D
:102B60000B02134301936B696A6B934221D16E612F
:102B70006E6363681B0403D46B6933F01F0309D1D0
:102B800001A9D9F800008DF80C708DF80D6003F0E4
:102B9000EDFD0196D9F810306660236099F8543045
:102BA000C9F81040013389F854306C6924F01F04CF
:102BB0009DE71B686B61DCE70320A6E700F0FFFFE1
:102BC0004B682DE9F04101338AB04FF0000805460B
:102BD0000E4617468DF80F80CDE9048803D10520F5
:102BE0000AB0BDE8F081002AF9D0946806210DF101
:102BF0000F0203F094FE317A002977D07368082B16
:102C0000EDD13368002BEAD05A88D88862809A8840
:102C1000E080A2805A7862701B7813F0600F2370F6
:102C200016D10C2A60D8514B53F82260002E5BD08D
:102C300005AB04AA21463846B04705AB019304AB67
:102C40000093002302462146284603F016FDC7E7FD
:102C500003F0200248B31F0627D4BAB1012108901F
:102C600006AA2846CDF81C808DF82410069400F0A2
:102C700085FA089B0593079B04930028DDD1014644
:102C8000E388049A284603F0E8FDA9E75E062BD501
:102C90000023089006AA13210793012328460694CF
:102CA0008DF8243004F0C2F8E3E77AB10023012163
:102CB000089006AA284607938DF82410069400F081
:102CC0005DFA089B0593079B0493B6E759060BD55D
:102CD00001230792089006AA132128468DF8243074
:102CE000069404F0A3F8ECE70520A6E79DF80F3062
:102CF000032B09D1627821461C4B384653F82250E9
:102D000005AB04AAA8476BE77368002B3FF467AFD5
:102D1000E288002A3FF463AF94F90000227800288B
:102D2000FFF65DAF12F0200010D0326828468DF813
:102D300024100121079206AA0694089300F01EFAB7
:102D400005AB019304AB009301237BE752060BD53F
:102D5000326813218DF824002846079206AA0694AB
:102D6000089304F063F8EBE70520E9E7987A006040
:102D700030B5104B87B0054603AACDE903310E4BA1
:102D800001A901930123ADF8083003F06AFD044660
:102D900060B98DF8060003AA01A9284603F061FD79
:102DA000044618B18021284603F07AFD204607B07A
:102DB00030BD00BFC12B0060400080002DE9F34111
:102DC00006460F469046002A52D001A804F075FB33
:102DD000284B01989D681C466DB393F87530B3423B
:102DE00029D1012504F06EFB284602B0BDE8F08130
:102DF00084F8756004F066FB27611E4B2F4684F84B
:102E0000756084F8745084F8775001351F77082D69
:102E1000C3E9057703F10C03F7D1B31E012B10D9D9
:102E200001A8062504F049FB0198A76084F8757095
:102E300004F048FBD8E7002DDAD0022504F042FB6D
:102E4000D2E70D4B30460D4AE360C8F80040A2F1CE
:102E50000801E3681B689847054628B1054803F058
:102E6000DDFCC8F80070BFE7022384F87630BBE7CA
:102E70000325B9E7000E0020CC7A0060080E002080
:102E80002DE9F04F044687B018B9012007B0BDE81E
:102E9000F08F90F86460002EF7D043689B685A79F1
:102EA000B242F2D306F10056D3F800900C2700236B
:102EB000013E09EBC60A19F836509D42E5D907FBD9
:102EC00003F2DAF804008118825C022A69D10F7AD1
:102ED00000239F425AD80025CB7884F86530002D16
:102EE000D3D0002701204FF0060BA560B8462A7901
:102EF000554BBA4257D819F8367000234FF00C0CD6
:102F00009F420DD90CFB03F2DAF80460B118B25CF1
:102F10000A2A40F0838091F808C000239C4572D8AB
:102F20000027DFF82881DFF828913E46E5602B79FD
:102F3000BB42ABD906238DF80860A9687B43CA1849
:102F400010798DF80900CB5C8DF806305188ADF80A
:102F50000410D90952788DF8072063D0022A0DD1C8
:102F600003F00F0384F82A6084F8286084F829307D
:102F70004FF0FF3366622362CDF80C9003AA01A9DB
:102F800020680137049403F06CFCD0E71A0148680C
:102F900000EB0315805C94F8662090429CD00133CE
:102FA00097E7013389E78DF808800BFB07F2A868E3
:102FB000811891F804C08DF809C0825C8DF8062054
:102FC0004888ADF80400D00949788DF807100FD073
:102FD00003290DD102F00F0284F8628084F860802A
:102FE00084F861204FF0FF32C4F85C80A26503933F
:102FF00003AA01A92068049403F033FC00287FF49D
:1030000045AF013773E71A014E6806EB0317B65C4C
:1030100094F86620964203D001337FE701336FE7CF
:103020003D467DE7022AA9D103F00F0384F84660EC
:1030300084F8446084F845304FF0FF332664E3633E
:10304000CDF80C809AE700BFC3690060036A006096
:10305000E3690060F8B5144C0F4616462368F3B9CF
:10306000214600F071F80546B8B92368CBB1FF23BB
:1030700084F8640004F11400676084F8663020610D
:1030800004F02AFA04F13000E06204F025FA04F1B9
:103090004C00A06404F020FA34602846F8BD0225F4
:1030A000FBE70325F9E700BFF40E002037B505461E
:1030B00001A80C4604F001FA074B1A68954206D1A4
:1030C0000198236004F0FEF9002003B030BD0198A0
:1030D00004F0F8F90420F8E75C0F002013B504466B
:1030E00001A804F0EAF90A4B1A6862B19A7BA2427D
:1030F00009D100240198C3E900449C7304F0E2F96B
:10310000204602B010BD019804F0DCF90420F8E775
:103110005C0F002037B5054601A80C4604F0CDF938
:10312000084B1A684AB19A7BAA4206D101982360DB
:1031300004F0C8F9002003B030BD019804F0C2F9D2
:103140000420F8E75C0F002037B5054601A80C46BF
:1031500004F0B3F9084A13684BB1927BAA4206D136
:103160000198236004F0AEF9002003B030BD01984F
:1031700004F0A8F90420F8E75C0F00202DE9F347DC
:103180000F46154652B301A9FFF790FF30BB044626
:1031900001264FF00C08DFF85490019B5A68E3B207
:1031A000117A99421FD9126808FB03239A68127991
:1031B000022A02D082B9012200E0002209EB0212A9
:1031C00058683946D2F808A02A46D0470528034651
:1031D00005D0002808BF00260134DEE70423184686
:1031E00002B0BDE8F0873346F9E700BFE47A00603B
:1031F0002DE9F34705460C469046002A53D0002996
:1032000051D04B68002B4ED001A804F056F9274B43
:1032100001981F681E46002F34D09B7BAB4231D1F2
:10322000012404F04FF9204602B0BDE8F087204B9E
:10323000B573B36004F046F974601C4A28461D4912
:10324000FFF7BCFD044618BB4FF00C097368F9B2D8
:103250001A7A8A4223D909FB01FA196851448B680A
:103260001B79022B03D10A1D2846FFF7F3FE736872
:10327000196851448B681B7913B90A1D2846984771
:103280000137E3E7002FD2D0022404F01BF9CAE78C
:10329000306803F0C3FA2846FFF720FFC3E733681E
:1032A000C8F80030BFE70424BDE700BF5C0F002072
:1032B0006C0F00202D6E0060024B00200B6012236B
:1032C0004B6070478C000020087A20B9034B0B60DC
:1032D00043234B6070470520704700BF4800002023
:1032E000887A0E4B10B520B91A685B680A604B608B
:1032F00010BD9B680C891A8994420CD102280AD807
:103300001A6800B25B6852F8202053F82030002081
:103310000A604B60ECE70520EAE700BFAC00002044
:10332000244B00204FF0080CF0B5402410254FF03E
:10333000070E03F142075A78052A13D19A78022919
:1033400093F9026002F00F0221D1002E1DDA012A4A
:1033500004D183F806E058711D7103E0022A01D1FF
:10336000597118711A781344BB42E4D30229124BE5
:103370004FF01001114A18D15980072119714FF4EB
:103380000073002053801381F0BD032AE7E7002E6D
:1033900009DA012A02D183F806C0DCE7022A04BF59
:1033A00058711C71DEE7032AF9E759800821197169
:1033B0004023E6E74800002050010020560100208D
:1033C000013970B505460A291BD8DFE801F0062C43
:1033D0003A1A1A3F531A666C7600516869B1584B15
:1033E0005888B1FBF0F300FB131333B928461A4693
:1033F0000221BDE8704003F0D5BC524B187A012879
:1034000001D0012420E09B7A012BFAD113680BB97B
:103410000029F6D14A4B28464B4A03215B88BDE878
:10342000704003F0E6BC474B197A0129E9D19B7A39
:10343000012BE6D1454B52681A601B68002BE0D186
:10344000E8E7002480F86740204670BD5389012BCF
:1034500007D1137B0024012B2CD113683C4A1A603E
:10346000F2E7022B17D1137B0024012B22D1136822
:10347000384AF4E75389012B06D11368344919609F
:10348000536802221A6006E0022B04D11168314809
:103490005268086013600024D6E713682E4919604B
:1034A00053680722EEE7137B0024012B02D1136837
:1034B000294AD4E753681C60C6E7284E917A338ABC
:1034C0008807B17356BF23F0020343F002039BB297
:1034D00011F0010108BF23F00103B17242F2A10112
:1034E00014BF43F001039BB231600021338271713C
:1034F00002211289338195F86730F1803271C3B9A6
:103500000A23164A0121284603F04CFC044610B158
:103510001348FEF783FF012385F86730B37B13F070
:103520000102084B07D01A7A012AD1B28CD19972C4
:103530008AE70124F2E7197A012985D19A7283E793
:10354000560100207C0F0020900F002090130020D7
:10355000780F00208C0F00204401002098130020D9
:103560008E7B0060013938B504460C2912D8DFE89B
:1035700001F00711111111111111192D3A414800D3
:10358000244D0023022005F109012B72EB7203F098
:1035900069FC10B10124204638BD697A2046FFF746
:1035A000BFFEF7E714781CB91A4B1C72DC72F1E706
:1035B000012C2DD11748032104721378164AC372C7
:1035C000164B40685B8803F014FCE4E7114B197A52
:1035D0000029DFD01288B2F5007F4FEA1221D9D23C
:1035E0000B441A73D6E7002AD4D01146BDE8384000
:1035F000FFF762BE002ACDD01146BDE83840FFF784
:1036000063BE002AC6D01146BDE83840FFF768BE49
:103610000524C0E77C0F0020900F002056010020F9
:10362000014B186802F001BD7C0F00200B4B07B561
:103630001A8800209B780A49ADF804208DF80630DE
:1036400000F082F90649002000F0DEF801AA0549E1
:10365000022002F08CFA03B05DF804FB047C0060E9
:1036600000389C1C00366E01034B302283F8712316
:103670004FF40032DA60704700E100E038B5124CD8
:10368000FFF7D4FF114D0023224602202946637222
:103690002372C4E90033FFF7ABFD70B10C48FEF7AD
:1036A000BDFEFFF7E1FF41F288300A4900F0A6FABB
:1036B0002068BDE8384003F0ADB80748FEF7AEFE1D
:1036C0002B685B686360ECE77C0F0020380100200A
:1036D000BC7B00600046C323D57B00602DE9F04130
:1036E000204D2B7A012B3BD1AB7A012B38D11E4BCD
:1036F0001E4C1A6852B11A68013207D01C490022C8
:103700001C4E1868904223D800221A6023681A4E73
:103710007BB91A493268174802F09EF8154803F041
:1037200032FF20601648FEF779FE1649164800F071
:1037300065FA33680133336023688BB10022236854
:103740006868022122600B4ABDE8F04103F02ABB01
:1037500020680132471C276011F8017B3754D0E7FD
:10376000BDE8F0817C0F002090130020941300200E
:10377000900F002090110020740F0020F77B006054
:10378000027C00600046C323C0270900044BD3F825
:103790007032DB0602D4034B18687047024870474A
:1037A00000800D40B013002000366E010A4B4FF030
:1037B0008042C3F85821D3F87022D103FBD54FF4CF
:1037C0008032C3F85421D3F850211204FBD54FF4B2
:1037D0008032C3F85821704700800D40044B1022FE
:1037E00010B9C3F874227047C3F87822704700BF3D
:1037F00000800D40034AD2F8703243F00103C2F852
:103800007032704700800D40104AD2F8803043F08B
:103810000303C2F8803002F5F212D2F8403143F0CF
:103820000203C2F840310A4B00BF013BFCD1094AF8
:103830000120D2F8203123F4F85323F0010343F49C
:10384000B85343F00103C2F82031704700C00F4065
:10385000801A060000800D400F4B02791968920310
:1038600021F4E03192B20A4342F480321A601968BE
:10387000026821F4415102F07F0221F03F010A4326
:1038800042F400521A601A68002AFCDA1A6822F41C
:1038900080321A60704700BF00800D40184B027BD9
:1038A000196B920321F4E03192B20A4342F4803260
:1038B0001A63196B027821F4405102F0010221F0E1
:1038C00001010A43C18942F400521A63426822F09E
:1038D00040421A65826822F040421A66428AC2F368
:1038E0000E0242EA0142017CC90389B20A431A640A
:1038F0001A6B002AFCDA1A6B22F480321A637047C2
:1039000000800D400F4B42781969920321F4E03199
:1039100092B20A4342F480321A611969027821F4A2
:103920004151520021F0020102F002020A4342F426
:1039300041521A611A69002AFCDA1A6922F48032AB
:103940001A61704700800D40002307B5ADF80430C0
:103950000F4B1A69920416D51A6942F040021A6197
:103960000C4B01201A6B22F000421A631A6B22F0F2
:1039700080421A6300221A601A6B42F4C6121A635C
:1039800003B05DF804FB01A8FFF7BCFFE8E700BF48
:1039900000800D4000900D40014B00221A627047DC
:1039A00000800D40024B4FF480521A67704700BFF1
:1039B00000800D40024B4FF48052C3F8E020704766
:1039C00000800D401FB5784B04460DF1100C0FCB55
:1039D0000CE90F00C4F30B4204F01F0002F1804217
:1039E00002F558221368C34013F001031AD013687C
:1039F00013F4404F19D1FFF7C9FE136813F4803355
:103A000040F0D080694A94425ED030D8A2F5A0023E
:103A1000944200F0C4800AD80D2C45D0A2F5801243
:103A2000944248D0184604B010BD0020E5E7604A33
:103A30009442F7D15F4B07EE900A93ED146AB8EE0B
:103A4000677B93ED185AB8EE466B1B6BB8EE455B7F
:103A5000DB0727EE067B4CBF16231423584387EE63
:103A6000056BFCEEC67B17EE903A0344DAE7524A48
:103A7000944200F08C8011D8504A944254D002F500
:103A800080029442CED14B4B04AAD3F8E03003F02D
:103A9000030302EB830353F8103CC3E74849494A48
:103AA0008C4208BF1346BDE7424B1B6803F07F03FF
:103AB00058434308B6E73F4B1B6913F0020F14BF8E
:103AC000162314234343ADE73A4A07EE900A136FD7
:103AD000B8EE677B92ED205A92ED246A03F07F03E3
:103AE000B8EE455BB8EE466B27EE055B85EE067BD0
:103AF000BCEEC77B17EE101A00FB0313116F11F415
:103B0000C0110DD0B1F5002F0CD0D2F870212E4984
:103B10000A40B2F5004F38D08A4283D19B0881E732
:103B20009B08F2E75B08F0E7224A07EE900AD2F81A
:103B3000A030B8EE677B92ED2C5A92ED306A03F01C
:103B40007F03B8EE455BB8EE466B27EE055B85EE6E
:103B5000067BBCEEC77B17EE101A00FB0313D2F8EE
:103B6000A01011F4C0110CD0B1F5002F0BD0D2F879
:103B7000702102F04042B2F1804F06D0B2F1404FC6
:103B8000CBE79B08F3E75B08F1E75B084AE7094BE3
:103B900004AAD3F8E03003F00C0313447BE7054B91
:103BA0001B6A8AE703463DE7047B00600D00700056
:103BB0000D00300000800D401400E0000D00A0005A
:103BC0001500E00040787D0100808000C000BF2328
:103BD00001F03F018340814010B5074CD4F800212B
:103BE00022EA03028023834011431343C4F80031C7
:103BF000C4F8001110BD00BF00800D4008B5064A92
:103C00000023A0FB010103F057FE00180046A0F1BD
:103C100001000028FBD108BDC0C62D0030B503222D
:103C200000F01F05054C000AAA40A94054F82030B6
:103C300023EA02030B4344F8203030BD68C00F4034
:103C40000346054A002052F8041B994202D0013075
:103C50000928F8D1704700BF147B00602DE9F84FA8
:103C60000B684FF00A0E002604460D460EFB02FAC2
:103C70004FEA830998464FF0040C37465FFA8CFBF5
:103C8000BAFBF9F105319944B1FBFEF189B2012982
:103C900038BF01210CFB01F00CF1010CB2FBF0F07C
:103CA000834234BFC01A181A40459EBF80465E4604
:103CB0000F46BCF1210FE1D16422B3FBF2F303EB19
:103CC00043034345C0F08E802046C7F30C07FFF73F
:103CD000B7FF464B032133F91000FFF79FFFA3689E
:103CE000321F013E43F00203032A4FEA0666A36037
:103CF000A36806F0F85623F00203A360236998BF77
:103D000043F4003323F01F2323F0FF031E433E43FD
:103D10002661236923F000532361A269EB7B22F41F
:103D2000E26229791B0222F0070203F4E0630A43EE
:103D30001A43AB7B9B0003F0040313436A79012A07
:103D40004BD1002946D023F40063A361EB792269AB
:103D50005B0322F4005203F40053134323616A7A95
:103D60002B7A43EA0243E362A36A43F08803A36227
:103D7000A36A43F44043A3626B7B2A7B1B01616A05
:103D8000520103F0100302F0200213430B4363625D
:103D9000AB7A1BB1636A43F008036362EB7A1BB131
:103DA000636A43F001036362A979114B114A002948
:103DB00018BF1A46636913432A7C6361A3690AB179
:103DC00043F400236A7C0AB143F480230020A361FA
:103DD000BDE8F88F43F40063B7E70029B5D043F09E
:103DE0001003B2E740F22150F2E700BF7C7B006095
:103DF00000C01FE000C01FC0044A0548516808B554
:103E0000044B1B689847BFF34F8F08BDB4130020C5
:103E100000401840D8130020044A0548916808B5AE
:103E2000044B1B689847BFF34F8F08BDB4130020A5
:103E300000801840D8130020044A0548D16808B50E
:103E4000044B1B689847BFF34F8F08BDB413002085
:103E500000C01840D8130020044A0548116908B56D
:103E6000044B1B689847BFF34F8F08BDB413002065
:103E700000001940D8130020044A0548516908B5CC
:103E8000044B1B689847BFF34F8F08BDB413002045
:103E900000401940D8130020044A0548916908B52C
:103EA000044B1B689847BFF34F8F08BDB413002025
:103EB00000801940D8130020044A0548D16908B58C
:103EC000044B1B689847BFF34F8F08BDB413002005
:103ED00000C01940D8130020044A0548116A08B5EB
:103EE000044B1B689847BFF34F8F08BDB4130020E5
:103EF00000001A40D8130020474B4849D3F88820C7
:103F000042F4700270B5C3F88820454A9A600B8964
:103F100023F001031B041B0C0B81424B1A8922F076
:103F200001021204120C1A810A88560705D50A8864
:103F300022F004021204120C0A801A88550705D5D3
:103F40001A8822F004021204120C1A80364B1A68E6
:103F500094045BD5354A5A604FF6FF729A601A682E
:103F600022F0A00242F020021A60314B1A68D007FA
:103F700003D51A6822F001021A60274B5A6991038F
:103F800015D45A6912F4003211D1BFF34F8FBFF329
:103F90006F8FC3F85022BFF34F8FBFF36F8F5A69F3
:103FA00042F400325A61BFF34F8FBFF36F8F1A4B49
:103FB0005A69D20327D45A6912F4803223D1C3F844
:103FC0008420BFF34F8FD3F8802043F6E074C2F310
:103FD000C900C2F34E32520102EA0406014646EA23
:103FE00081750139C3F86052F9D2203A12F1200FDD
:103FF000F2D1BFF34F8F5A6942F480325A61BFF356
:104000004F8FBFF36F8F03F0EFF970BD4CF220526A
:104010005A604DF628129EE700ED00E000800B404C
:104020000020006000000D4000C00B4020C528D9D2
:1040300010E000E030B587B00C46054601A803F05B
:10404000B5F963680193237A012B21D102238DF8FE
:10405000083001A9637A207B5A1E534253412268DB
:104060008DF80B30A37A003B18BF01238DF8153073
:10407000E37A003B18BF01238DF81430084B53F846
:104080002000FFF7EBFD40B9237B2B7007B030BD5C
:10409000022B0CBF03230023D9E742F6AF70F5E7EC
:1040A000387B006008B5044B007853F8200003F01B
:1040B0008CF9002008BD00BF387B006010B50F4CA4
:1040C000236813F0400F23460CD10D48FFF77AFC0C
:1040D00006222368B0FBF2F003F03F030133B0FB8C
:1040E000F3F010BD074AD2F87022D20603D4064A74
:1040F00010681B68F0E70548FBE700BF24C00F40CD
:104100000D00100000800D40B013002000366E013D
:104110006D4B6E495A69F0B592036D4CA4EB0104E6
:104120000ED5BFF34F8FBFF36F8F5A6922F4003261
:104130005A610022C3F85022BFF34F8FBFF36F8F35
:10414000614A5369DB0324D50023C2F88430BFF3EE
:104150004F8F536923F480335361BFF34F8FD2F8ED
:10416000803043F6E076C3F3C905C3F34E335B01F9
:1041700003EA060C28464CEA80770138C2F87472CC
:10418000F9D2203B13F1200FF2D1BFF34F8FBFF3D1
:104190006F8FBFF35F8F4C4A4E48536A23F48033CE
:1041A00053624D4B5A6822F001025A601022DA60C5
:1041B0004A4A1A614A4ADA604A4A1A61D8601A6160
:1041C000494A4A48DA604A4A1A611422DA60494A7E
:1041D0001A611522DA60484A1A61D8601A61474AA2
:1041E000DA60474A1A61474ADA60474A1A61474A21
:1041F000DA60474A1A61002224FA02F0012861D8E5
:104200006AB1013A21F01F01520041F01A0102F097
:104210003E02D96042F0427242F001021A613D4A08
:10422000DA603D4A1A613D4ADA603D4A1A61052268
:104230005A60254B5A6A42F480325A62BFF34F8F5C
:10424000BFF36F8F5A6912F4803223D1C3F88420F0
:10425000BFF34F8FD3F8802043F6E074C2F3C90058
:10426000C2F34E32520102EA0406014646EA817563
:104270000139C3F86052F9D2203A12F1200FF2D17D
:10428000BFF34F8F5A6942F480325A61BFF34F8FA8
:10429000BFF36F8F0C4B5A6912F4003211D1BFF388
:1042A0004F8FBFF36F8FC3F85022BFF34F8FBFF311
:1042B0006F8F5A6942F400325A61BFF34F8FBFF3D8
:1042C0006F8FF0BD013297E700ED00E00000E08164
:1042D000000000821200006090ED00E03F0010102E
:1042E0001100008039001003130000601600002048
:1042F0002D0003063B0010032100030317002020BC
:104300002500030318002820230003031900008060
:10431000310003031B0000402B0010031C0000426F
:1043200027001003C3B2820E03F18043202A03F555
:104330007C2330B5C0F304251C68C0F34C3001FA6F
:1043400005F100FA05F081EA040100EA010080EAC3
:104350000400186005D00123024993408A6C1A4278
:10436000FCD130BD00C00F40C3B2820E03F18043C8
:10437000202A03F57C2330B5C0F304251C68C0F364
:104380004C3001FA05F100FA05F081EA040100EA77
:10439000010080EA0400186005D00123024993401F
:1043A0008A6C1A42FCD130BD00C00F40074903227D
:1043B00010B5040A00F01F0051F8243002FA00F092
:1043C00023EA000041F8240010BD00BF68C00F4080
:1043D00038B54FF40042DC4B00201A60DB4BD3F8B9
:1043E000C02242F48032C3F8C022D3F8C02222F4A3
:1043F0000032C3F8C022D64BD64A1A60FFF7D6F96E
:10440000FFF7F8F90120FFF7E9F9D34A0121D34872
:10441000136823F0FF0343F07F031360FFF782FF6D
:104420000121CF48FFF77EFFCE4BDA6822F01F0252
:1044300042F01302DA601A68002AFCDA0021CA4846
:10444000FFF792FF4FF48870FFF7B0FF4FF48470CE
:10445000FFF7ACFF40F21620FFF7A8FF4FF40670FD
:10446000FFF7A4FF40F20E20FFF7A0FF0321BF4893
:10447000FFF77AFF0121BE48FFF776FF0021BD4814
:10448000FFF772FF4FF48A70FFF790FF4FF48B70C5
:10449000FFF78CFF1820FFF789FF1A20FFF786FF30
:1044A0004FF48670FFF782FF0121B348FFF75CFFEE
:1044B00040F20260FFF77AFF0121B048FFF754FF96
:1044C0000021AF48FFF72EFF40F20460FFF76EFFB8
:1044D0000121AC48FFF748FF0021AB48FFF722FF5E
:1044E0004FF44170FFF762FF07214FF21400974C21
:1044F000FFF73AFF0021A548FFF714FF0021A44869
:10450000FFF710FF40F20270FFF750FF0121A148B2
:10451000FFF72AFF0121A048FFF704FF40F2022025
:10452000FFF744FF01219D48FFF71EFF00219C4833
:10453000FFF7F8FE4FF48070FFF738FF4FF48170FB
:10454000FFF734FF4FF48270FFF730FF4FF48370B2
:10455000FFF72CFF04219348FFF706FF0221924842
:10456000FFF7E0FE1620FFF721FF03218F48FFF73A
:10457000FBFE00218E48FFF7D5FE40F21250FFF7F8
:1045800015FF03218B48FFF7EFFE01218A48FFF753
:10459000EBFE00218948FFF7C5FE40F21450FFF7FB
:1045A00005FF03218648FFF7DFFE01218548FFF75D
:1045B000DBFE00218448FFF7B5FE40F21650FFF7FE
:1045C000F5FE03218148FFF7CFFE01218048FFF768
:1045D000CBFE00217F48FFF7A5FE40F20620FFF743
:1045E000E5FE4FF40270FFF7E1FE40F20A20FFF70C
:1045F000DDFE00217848FFF7B7FE00217748FFF77E
:1046000091FE0E20FFF7D2FE1220FFF7CFFE40F200
:104610000670FFF7CBFE1020FFF7C8FE1420FFF74F
:10462000C5FE4FF4E160FFF7C1FE01216C48FFF7C2
:104630009BFE02216B48FFF775FE4FF4A360FFF766
:10464000B5FE1C20FFF7B2FE0C20FFF7AFFE4FF4C3
:104650008C70FFF7ABFE40F20230FFF7A7FE40F28E
:104660000630FFF7A3FE40F21A50FFF79FFE40F21C
:104670000E60FFF79BFE00215B48FFF775FE0021EF
:104680005A48FFF74FFE40F20A30FFF78FFE012134
:104690005748FFF769FE03215648FFF765FE0521DD
:1046A0005548FFF73FFE40F20E50FFF77FFE012115
:1046B0005248FFF759FE07215148FFF755FE0321E5
:1046C0005048FFF72FFE40F20250FFF76FFE012126
:1046D0004D48FFF749FE07214C48FFF745FE0321EF
:1046E0004B48FFF71FFE4FF44070FFF75FFE0121BC
:1046F0004848FFF739FE07214748FFF735FE0321F9
:104700004648FFF70FFE00214548FFF70BFE4548DE
:10471000FFF7A2F84448FFF7C1F81B210020FFF77C
:1047200055FA10210120FFF751FA18210220FFF756
:104730004DFA10210320FFF749FAFFF733F94FF440
:1047400080323A4B1A6073E0AC13002000800D40B9
:10475000B013002000366E0100C00F40186C0080BE
:10476000143900140000084014EA000414680080A2
:1047700010E0004014FB00801CE0078024EB008068
:104780001C30008024F000801C3100801427008041
:104790001426008018FD0080186800803CEB008023
:1047A0003C69008018FA0080186400802479008039
:1047B000186E008028E6008028E007801C6A0080D0
:1047C0002CE600802CE007801C6C008028F600801E
:1047D00028F007801C6E008038F307803832008094
:1047E00020E207802068008024E0078024260080E3
:1047F00038EC008018F7008038EF008030F9008036
:1048000030F600803074008030EC008030E90080A9
:104810003067008028E9008028F90080207300803C
:104820000C2000805C7B0060647B006074800D4025
:10483000D4F8702122F40042C4F87021D4F8702119
:1048400022F40002C4F87021226F42F40052226761
:10485000D4F8A02022F40052C4F8A020D4F8A0205C
:1048600022F4E03242F48032C4F8A0200022C4F8DE
:10487000B0200122C4F8C020D4F8A020D4F87011D0
:1048800022F4415241F0404122F03F02C4F870113D
:1048900042F4022242F01F02C4F8A020D4F8A03053
:1048A000002BFBDA4FF480354A4B1D60FFF782F88E
:1048B000494B1D60D4F8E03023F0030343F00103BB
:1048C000C4F8E030D4F8E03043F40053C4F8E030EA
:1048D000D4F8E03023F00C03C4F8E030D4F8E03032
:1048E00043F48013C4F8E030D4F8E03043F400130C
:1048F000C4F8E030FFF750F8384B032138481D600A
:10490000236A43F400532362FFF70CFD002135486E
:10491000FFF708FD00213448FFF704FD002133486C
:10492000FFF700FDD4F8603123F01F03C4F86031B5
:104930002F4B1A6E22F070021A661A6E22F00F02C6
:1049400042F001021A661A6E22F460021A661A6EAA
:1049500022F4F81242F490121A661A6E22F480724F
:104960001A661A6E22F080021A661A6E22F080729F
:104970001A66A3F5A0235A6822F007025A605A6803
:1049800022F038025A605A6822F0C0025A605A680F
:1049900022F440725A605A6822F440625A609A685F
:1049A00022F09F6222F4E0229A605A6822F40052B8
:1049B0005A605A6822F480425A605A6922F0805242
:1049C0005A615A6922F000525A610A4B0A4A1A6027
:1049D00038BD00BFA8800D40E4800D4024800D400C
:1049E0001872008014390014186C00801C26008096
:1049F00000C00F404C0100200046C323084A136842
:104A000043F00C03136002F57C220223743213601E
:104A1000536041F2B003C2F8F031C2F8F43170478C
:104A200078C00F40F8B5304E3468002851D10020CE
:104A3000F8BD2368B3F1805F39D1D4E9013252B1B6
:104A40001168B1F1805F06D1516803330B44636094
:104A50009368A360F1E7AB4207DB9E4505DB204688
:104A60004FF0005340F80C3BE2E7634511D9204674
:104A70004FF0005165605B1B40F80C1B00EB85019B
:104A8000033BA1604FF0805440F82540C1E901325A
:104A9000CEE762B9A0EB830000F014FF0130C6D06E
:104AA0004FF0005304F10C00C4E90035C0E727467D
:104AB000A468002CBDD10C3000F004FF431CB6D01C
:104AC0004FF000538460C0E9003557B930600C30B6
:104AD000AEE7C31C00279D0805F10A0C05F1030E83
:104AE000E7E7B860F3E700BFE013002010B5FFF779
:104AF00099FF044628B91722034902F0C4FF02F0C7
:104B0000AFFF204610BD00BF077C006010B5174AFC
:104B10000020174902F01DFE4FF480734FF48062AD
:104B20000021124802F010FD124A1349012002F040
:104B300010FE4FF480734FF4806200210D4802F0A4
:104B400003FD0E4B1B68022B0EDD0D4A02200A49A5
:104B500002F0FFFD4FF480734FF48062002108489B
:104B6000BDE8104002F0F0BC10BD00BFE81300200B
:104B70001F7C006024140020217C0060787B006092
:104B8000601400202DE9F04F9FB00446CDE90823C2
:104B9000299F00230793DDF8A09019F8010B18B99D
:104BA00007981FB0BDE8F08F25281CD0079BDDE9D2
:104BB00008AB1946DA175E1C514513460A4673EBDB
:104BC0000B0308DAA368013B002BA36007DB236813
:104BD0005A1C226018700796CDF8A090DBE721469A
:104BE00002F017FDF7E74FF0000815E0BAF12D0FBE
:104BF0000FD0BAF1300F51D04FF0000B0A22AAF1BA
:104C00003003D9B2092926D802FB0B3B15F801ABBA
:104C1000F5E748F00108A9464D4615F801ABBAF191
:104C20002B0F32D0E2D8BAF1200F31D0BAF1230FD6
:104C300031D0BAF12A0FDFD13E4695F800A009F134
:104C4000020556F804BBBBF1000F3746BCBFCBF1E1
:104C5000000B88F001082BEAEB73BAF12E0F0C93CE
:104C600040F0A28095F800A0BAF12A0F19D00135C2
:104C70004FF000090A22AAF13003D9B2092917D846
:104C800002FB093915F801ABF5E748F00208C2E765
:104C900048F00408BFE748F00808BCE748F400788B
:104CA000B9E73E4695F801A0023556F8049B374611
:104CB000B9F1000F78DB48F01008BAF16C0F0DD194
:104CC00095F800A0BAF16C0F03BF95F801A048F069
:104CD00060080235013518BF48F02008BAF14C0FC2
:104CE00002D0BAF1710F62D115F801AB48F060083B
:104CF000BAF1780F0CDCBAF1570F79DCBAF1410F39
:104D000000F00D8300F3BE80BAF1000F00F01681B1
:104D10000C9B5E1E18F00103049340F0EE8018F423
:104D2000007F079B14BF3022202298464FEAE37988
:104D3000013E40F1C7800C9BBBF1000F079A03F1C5
:104D4000FF33D4BF00201846C3F10003D8BF0023AF
:104D500010440C9A023A9E18431CC1170793DDE9D0
:104D60000823904271EB03030ADAA268013A002A91
:104D7000A260C0F2C4802268511C216082F800A0A9
:104D8000049B7BB1079BB3464FF0200A98464FEA3D
:104D9000E379BBF1010B40F1B780079B002EA8BF60
:104DA0009B1907933E46D6E04FF0000985E7BAF11C
:104DB000680F0ED195F800A0BAF1680F03BF95F8FF
:104DC00001A048F480780235013518BF48F080080A
:104DD0008EE7BAF16A0F04D148F0400815F801AB2C
:104DE00086E7BAF17A0FF9D0BAF1740F80D1F5E7FE
:104DF000AAF15803202B8BD801A252F823F000BF50
:104E0000C5500060114D0060114D0060114D0060F3
:104E1000114D0060114D0060114D0060114D00609A
:104E2000114D00601F530060114D0060BB4E0060CB
:104E3000B75200608F4E00608F4E00608F4E006052
:104E4000114D0060B7520060114D0060114D0060BF
:104E5000114D0060114D0060414F0060F151006044
:104E600085510060114D0060114D00607D4F006064
:104E7000114D006045520060114D0060114D006001
:104E8000255100602AF00203452B7FF441AFFE1D3F
:104E900018F0100F4FF0000148F4806826F0070664
:104EA00008BF4FF006090846F6E80223CDE91423AF
:104EB00000220023CDE904236DE13E4656F804AB01
:104EC000374625E7DDE90801804579EB010308DA7B
:104ED000A16801390029A16008DB2168481C206015
:104EE0000A7018F1010849F1000921E7104621462E
:104EF0000A9202F08EFB0A9AF3E707982CE7214604
:104F0000504602F086FB3BE7DDE90823904579EB4C
:104F1000030309DAA268013A002AA26009DB2268C9
:104F2000511C216082F800A018F1010849F1000924
:104F30002FE72146202002F06CFBF5E7013D31E729
:104F400018F0400F07F104063B68079A07D0104697
:104F5000D117C3E900013746A946079E3BE618F082
:104F6000200F01D01A60F6E718F4807F01D01A7084
:104F7000F1E718F0800FF5D01A80ECE73E46C24BFF
:104F800056F804BBBBF1000F08BF9B46584602F021
:104F9000FAFA18F0100F824602D04845A8BFCA4658
:104FA0000C9BA3EB0A0718F00103049313D118F428
:104FB000007F079B18BF302298464FEAE37908BF6D
:104FC00020223B46013B26D527EAE773079A013F9B
:104FD0001A44FF1A0792079B98464FEAE379002389
:104FE000534535DB079BBAF1000FA8BF5344079325
:104FF000049B002BAFD0079BBA464FF0200B98467E
:105000004FEAE379BAF1010A42D5079B002FA8BF06
:10501000DB1907939FE7DDE90801804579EB010182
:1050200008DAA16801390029A16008DB2168481C61
:1050300020600A7018F1010849F10009C2E7104622
:1050400021460C930A9202F0E4FA0C9B0A9AF1E7CB
:10505000DDE90812884579EB02020ADAA268013A12
:10506000002AA2600CDB2268511C21601BF803108F
:10507000117018F1010803F1010349F10009AFE7CC
:105080001BF8030021460A9302F0C3FA0A9BF0E7DB
:10509000DDE90823904579EB030309DAA368013BB6
:1050A000002BA36009DB23685A1C226083F800B040
:1050B00018F1010849F10009A4E72146202002F077
:1050C000A8FAF5E718F0400F1BD0FE1D26F00706E2
:1050D000F6E80223CDE9042318F0800119D0BDF8C9
:1050E000101000230491059318F0080F67496848D1
:1050F00008BF084618F0100F01D028F40078654961
:1051000049E03E46002156F8042B1046CDE9040143
:10511000E2E718F4807FE7D0049B03F0FF00CDE9BD
:105120000401E1E718F0400F1BD0FE1D26F0070632
:10513000F6E80223CDE9042318F0800119D0BDF868
:10514000101000230491059318F0080F4F4952489E
:1051500008BF084618F0100F01D028F400784F4916
:1051600019E03E46002156F8042B1046CDE9040113
:10517000E2E718F4807FE7D0049B03F0FF00CDE95D
:105180000401E1E73E46002156F8042B1046CDE924
:10519000040142494048079B16AF4FF0550EDDE928
:1051A00008BCCDE91090BBEB030B4FF0FF306CEB6C
:1051B000E37CCDE91200CDE90ABC0020BC460130F9
:1051C0000CF801EB2028FAD118F4826F04BF0120FB
:1051D0001090BAF16E0F00F3AA80BAF1470F00F3F6
:1051E0002881BAF1400F00F3B5804FF00009BBE011
:1051F00018F0400F15D0FE1D26F00706F6E8022332
:10520000CDE9042318F0800113D0BDF8101000235D
:105210000491059318F0080F21481C4908BF08465F
:1052200065E03E46002156F8042B1046CDE9040106
:10523000E8E718F4807FEDD0049B03F0FF00CDE990
:105240000401E7E718F0400F16D0FE1D26F0070610
:10525000F6E80223CDE9042318F0800122D0BDF83E
:10526000101000230491059318F0100102D028F4C7
:105270000078002105488EE73E46002156F8042BB1
:105280001046CDE90401E7E7237C0060D47B006091
:105290002A7C0060387C00602D7C0060497C0060C6
:1052A000307C006018F4807FDED0049B03F0FF00A8
:1052B000CDE90401D8E718F0400F15BFFE1D3E46AA
:1052C00026F0070656F8042B14BFF6E80223D3177E
:1052D00018F0800F13D012B2D317002A73F1000117
:1052E00012DA5242C04863EB4303CDE9042318F0BD
:1052F00010013FF450AF28F4007800214BE718F478
:10530000807FEAD052B2E7E718F0020FCDE904231C
:1053100003D118F0040FB5487FE7B548E7E718F068
:10532000100F04BF48F010084FF00D09AFE5AAF1C7
:105330006F0A4FF00009BAF1090F15D8DFE81AF02B
:10534000CF00B80014001400140014003901140038
:105350001400B800AAF141004FF0010909FA00F960
:1053600019F0510940F0288118F480630D9300F082
:10537000338100231093129B002BC4BF03F1FF3332
:105380001093139B002B03DD013B109A13441093E1
:10539000109F119802F0F7F84F440C9BDF1B3B1A4B
:1053A000049308F001030C9340F2012318EA030F61
:1053B00000F044810027BA464FEAE77B119B5A1C54
:1053C00011921B78002B40F041810C9AA2B918F47D
:1053D000007FBA464FEAE77BDDF8108014BF302229
:1053E0002022B8F1010840F14B81049A511E22EAB3
:1053F000E272891A174404910D9A002A00F05D8127
:105400004FF03008994500F370810C9B73B1B8469A
:105410004FEAE779DDF810A04FF0200BBAF1010A4E
:1054200040F1FF81049B002BA8BFFF18079B3B4462
:10543000EFE5AAF1580011283FF6D7AE11283FF644
:10544000D4AE01A353F820F0BB540060EB510060D0
:10545000EB510060EB510060EB510060EB510060DC
:10546000EB510060EB510060EB510060B9550060FA
:10547000EB510060EB510060AF550060B955006022
:10548000B9550060B9550060EB510060AF55006040
:10549000049B09F1010903F00F00085C07F8010BF8
:1054A0001809059B40EA03704FEA131CCDE9040C70
:1054B000DDE904231343EBD156E74FF00009F7E78A
:1054C000049B09F1010903F00701303107F8011BC2
:1054D000D908059B41EA4371D808CDE90410DDE9FC
:1054E00004231343ECD13FE7049B09F10109049A1B
:1054F0005908059B30324FEA530C41EAC371049BB3
:105500004FEA930E059B4EEA837E9808049B11EBAD
:105510000E014CEB00004FEA111E4EEA007E4FEAEE
:10552000101C11EB0E0140EB0C004FEA112E4EEA5D
:10553000006E4FEA102C11EB0E0140EB0C004FEA0D
:10554000114C4CEA004C4FEA104E11EB0C014FF09D
:10555000000C40EB0E00091840EB0C004FEAD10C98
:1055600013F1060B059B4CEA407C4FEAD00E43F149
:105570000003ACFB0A010AFB0E11BBEB000B63EB53
:1055800001004FEA1B1343EA0073010913EB0C0CF3
:105590000CEB8C0341EB0E0EA2EB4302CDE904CEE3
:1055A00007F8012BDDE9042313439DD1DCE64FF01E
:1055B00000094FF00A0AF5E713AB16AA14A95046E2
:1055C000039312AB2A9F029310AB019311AB00938C
:1055D0004346B8478146C7E6109B0D9AB3EB0903D3
:1055E00048BF1346D3E600BF327C0060347C0060C5
:1055F000367C0060DDE90A128A457BEB020208DA9C
:10560000A268013A002AA26011DB2268511C2160C5
:1056100017701AF1010A4BF1000BA3EB0A02002AE2
:10562000E8DA049A22EAE277DB1B0493C3E6214618
:1056300020200E9301F0EDFF0E9BEAE7049B4FF054
:10564000000A4FF0000B2027013BE6E7DDE90A12D4
:1056500001378A457BEB020208DAA268013A002A88
:10566000A26008DB2268511C216013701AF1010A44
:105670004BF1000BA2E62146184601F0CAFFF5E700
:10568000DDE90A0182457BEB010108DAA1680139F5
:105690000029A16008DB2168481C20600A701AF10B
:1056A000010A4BF1000B9CE6104621460F930E9227
:1056B00001F0AFFFDDE90E23F1E7BA464FEAE77BE1
:1056C0004FF03008109B013B002B109372DABA4662
:1056D0004FEAE77B4B46002B03F1FF3800F3858050
:1056E000B9F1000FA8BF4F448FE616AABA464FEA99
:1056F000E77BD05C3C2831D03E2844D1139A013A54
:10570000002A13922FDB0137DDE90A128A457BEB71
:10571000020209DAA268013A002AA2602CDB2268A0
:10572000511C216082F800801AF1010A4BF1000B34
:10573000E4E7DDE90A1201378A457BEB020209DA68
:10574000A268013A002AA2600FDB2268511C216086
:1057500082F800801AF1010A4BF1000B129A013A0B
:10576000002A1292E5DA01334CE6214630200D93EF
:1057700001F04FFF0D9BEDE7214630200D9301F026
:1057800048FF0D9BD0E7DDE90A1201378A457BEB24
:105790000202E8DAA268013A002AA26004DB226869
:1057A000511C21601070DEE721460D9301F031FF9E
:1057B0000D9BD8E7DDE90A23013792457BEB030314
:1057C00009DAA368013B002BA36009DB23685A1C9C
:1057D000226083F800801AF1010A4BF1000B71E797
:1057E0002146302001F015FFF5E7DDE90A23924557
:1057F0007BEB03030BDAA36816AA013B12F808003F
:10580000002BA36009DB23685A1C226018701AF170
:10581000010A43464BF1000B5DE7214601F0F9FE1A
:10582000F5E7DDE90A23904579EB030309DAA3687C
:10583000013B002BA36009DB23685A1C226083F81C
:1058400000B018F1010849F10009E7E521462020E0
:1058500001F0DFFEF5E700BF0EB430B594B00446AA
:105860003C22002117AB05A853F8045B049301F018
:105870004FFE0A234FF0FF3205A8059408936FF0FE
:10588000004307930E4B0293049BCDE900536FF046
:105890000043FFF777F9079B0446013B002B079372
:1058A00008DB059B00221A70204614B0BDE830408A
:1058B00003B0704705A9002001F0ABFEF4E700BF7C
:1058C0004575006070B50B4D2B680BB90A4B2B600A
:1058D00003302E6820F003043444204600F00AF917
:1058E00010B92C60304670BD044B0C224FF0FF36CF
:1058F0001A60F7E7DC130020A0140020E413002056
:105900002DE9F041D56880460E461446EB025769F2
:1059100005D545F01005384602F0A6F8A061124BF7
:105920002B408BB1A169384602F0A7F8002806DAAF
:10593000E3684FF0FF3043F08003E36011E025F4AB
:10594000003525F01005E56032464146384602F044
:105950009AF820F00041761AA1690E44A661002849
:10596000E6D1BDE8F08100BF10000200F7B50446A3
:1059700098B103B0BDE8F04001F07EBF07FB0460C2
:10598000013401F079FF002818BF4FF0FF35019B6B
:10599000A342F3DC284603B0F0BD034B05463C2789
:1059A000024E1B680193F2E7787B0060E813002049
:1059B0002DE9F843C66804463C4B0D4690463340FB
:1059C0001BB902273846BDE8F883D0F81490484642
:1059D00002F04DF807460028F3D1B8F1010F2CD0A2
:1059E000B8F1020F2ED0B8F1000FEAD1002DE8DB9C
:1059F000B00404D52368E26A9A4238BFE362A16921
:105A0000A9420EDC2368E26A934238BF134622693A
:105A10005818801AA84204DB206B01EB000CAC453F
:105A200034DC002346F02006A562C4E9013326F4E5
:105A3000032626F04006E660C4E7204600F038F86A
:105A40000544D3E7484602F00FF8B0F1000CE268D5
:105A500004DA42F080020127E260B3E723681846C7
:105A6000A3691946E36A98422CBF0918C91892061F
:105A70000B462169A3EB010303D5A26A9342B8BF89
:105A800013466345ACBFED186544AFE76D1AB10727
:105A900044BF281AA060F10726F0200644BF9B1AD5
:105AA000EB1A154448BF63602560C0E7030010008F
:105AB000C3689A0705D10E4B21224FF0FF301A60C0
:105AC000704703F020021B0309D512B1806A013828
:105AD00070470368826900691344181AF7E70AB12E
:105AE000806A70470368826900691344181A704716
:105AF000E4130020044B23B1984234BF002001205E
:105B000070471846704700BFA03400202DE9F843C5
:105B1000002506460C4690461F46A946BD4201DBBD
:105B2000BDE8F88321684B1C7F2B04D93046FCF775
:105B30002BFCC4F800902368013506F80380236825
:105B400001332360EAE7F8B514461D462022431AC4
:105B50000134DDE9066739463046A84714F8012DBF
:105B600002B9F8BD012339463046A847F6E738B5F3
:105B700005461446FCF76EFD002838D0AA1E6023A7
:105B800053434FF4C01203F1804303F55823C3F885
:105B9000B421036B43F480430363036B43F400437A
:105BA000036300230360A5F10A03012B02D9063D1C
:105BB000012D05D84FF4002343634FF48013436352
:105BC000BCB16378A1781B040269090203F4702355
:105BD00022F00F1201F4706122F470620B432178FD
:105BE00001F00F010B4313430361002038BD012076
:105BF000FCE72046FAE7C36803F1200203F50071D1
:105C00000361F0B51A6020321B688A42FAD1002283
:105C1000856800F1140400F134071A6010234FF076
:105C2000010E4FF0400C80F854304368D3F8401117
:105C300021F47F01C3F84011D3F84011C3F840119B
:105C4000D3F8A81141F00801C3F8A811D3F8A8119E
:105C500021F00401C3F8A8112946C1F808E0403139
:105C600051F8406C6CF31A4641F8406C11F8086C1E
:105C700044F8042BA74262F30006E26101F8086CC5
:105C8000EBD14721C3F85851C3F85421C3F8481148
:105C900080F85620F0BD01F00F0141F08001FCF7C3
:105CA00011BD01F00F01FCF70DBDCA0883682DE995
:105CB000F04102F0100201F00F04012605462243D4
:105CC000CF099640620042EAD11203EB82134FEAF9
:105CD000821893F838206FF3000283F83820FCF71D
:105CE000DBFE6B68D3F8B021324224D1D3F8B8215F
:105CF000324020D1A96841F808206CB9002FD3F8B0
:105D0000C02114BF6FF40C016FF08C010A40C3F87E
:105D1000C0212046BDE8F08103EB8404002FD4F8B5
:105D2000C03114BF6FF40C016FF08C010B40C4F84C
:105D3000C0311446EDE70224EBE72DE9F84F0C469D
:105D400015460746002800F06C81142900F26B818B
:105D5000DFE811F015001F002800A700AF00EA00DF
:105D600019011F01260069016901690169016901C1
:105D70004F016201690169016901690146014268D7
:105D8000D2F8403143F00103C2F840312046BDE86B
:105D9000F88F4268D2F8403123F00103C2F8403155
:105DA0000024F3E7002A00F03E8192F802A0B2F846
:105DB00000B04FEADA090AF00F085146D67809F028
:105DC000100949EA08034FF0010909FA03F9FCF741
:105DD00063FE7A68D2F8B03119EA030FD6D1D2F84F
:105DE000B83119EA0309D1D106F003064FEA480198
:105DF000BB68CBF30A0E41EADA11012E4FEADA1C36
:105E00004FEA811403EB81112BD12888BEF5806FF6
:105E10001F59C0F3C12028BF4FF4806E013060F3DA
:105E20009F771F5118596EF31A401851287991F82D
:105E3000385060F3410581F83850B8F1000F15D1A2
:105E4000185940F000501851185940F400401851AA
:105E5000D2F8C001BCF1000F16D1B30043F0C0036B
:105E600015E0185969F39F701851DBE7B0FA80F01C
:105E70001D5902EB8802400960F35D751D511859E8
:105E80006FF3CF301851E3E7B30443F44003034307
:105E9000C2F8C03191F8383043F0010381F838304E
:105EA0007EE7002A00F0BF801178BDE8F84FFFF7C9
:105EB000FCBE002A00F0B780117801F00F04CE0973
:105EC000650045EAD115FCF7E7FDBB68AD017968CF
:105ED0005B5913F4004FC3F3C03210D034B9D1F87A
:105EE000C03143F00113C1F8C0314FE701EB840426
:105EF000D4F8C03143F00113C4F8C03150E744B9BD
:105F0000002ED1F8C03114BF4FF480320122134368
:105F1000E9E701EB8404002ED4F8C03114BF4FF43C
:105F2000803101210B43E7E7002A7CD011787B68A0
:105F300011F00F024FEAD1100ED10028D3F8C02182
:105F400014BF6FF480306FF0010002403846C3F890
:105F5000C021FCF7A1FD23E7002803EB820318BF53
:105F60006FF48030D3F8C02108BF6FF0010002EA5F
:105F7000000214BF4FF480004020C3F8C021D3F8C2
:105F8000C0210243E2E70124002A3FF4FFAE14805F
:105F900006E7002A47D0147814F00C0043D1E20938
:105FA00014F00F047B680ED06F34002A03EB8403D7
:105FB000596814BF4FF480330123194214BF0123E1
:105FC00000236B80ECE6002AD3F8C01114BF4FF415
:105FD00080330123194214BF012300236B80D5E6CF
:105FE0000AB32B7842685B0643F08073C2F85431E1
:105FF000D6E6002464F07F01E5B238460134C9B228
:10600000FFF753FE29463846FFF74FFE042CF1D127
:106010003846FFF7F0FDC3E62AB190F85830137008
:10602000BEE60324B2E60124B0E62DE9F04F87B0C6
:10603000002857D084686368D3F84411D3F8482106
:1060400001EA020A1AF0400FC3F844A118D0D3F8AD
:10605000AC214FF0FF11C3F8AC21D3F8BC21C3F839
:10606000BC21C3F8B411D3F8B02112F0FF1FF8D14E
:10607000D3F8843113F4807337D0012384F8563079
:106080001AF0010F0BD06368D3F8AC61002E36D143
:106090006268D2F8BC31C2F8BC31002B76D11AF05C
:1060A000040F1FD000238DF815306268D2F8845198
:1060B00015F48075CDE9033314D1D2F8843113F48B
:1060C000007F14BF0223002384F8583094F8563020
:1060D00043B1102303A98DF81430206800F046FB6B
:1060E00084F8565007B0BDE8F08FCDE90333102394
:1060F00003A9ADF81430206800F038FBC0E7002594
:10610000012726FA05F35FFA85F8D8073AD5A36880
:10611000414620464FEAC51903EBC51B1BF8302F3B
:10612000D2090092FCF7DCFB009A2046414682F03F
:106130000102FCF7D5FB08238DF8148007FA05F25D
:106140008DF8157004936368CDF80CB0C3F8AC21DA
:10615000A2684A44D2E90A0CD3F8401141F4005134
:10616000C3F84011D3F840118904F5D503A9C2E959
:106170000C0CD3F84021206822F40052C3F84021CF
:1061800000F0F4FA0135042DBBD181E74FF0000B8C
:1061900023FA0BF25FFA8BF7D60705D40BF1010B4C
:1061A000BBF1200FF4D17AE7BBF10F0F85BF103F91
:1061B00001220022FFB2032FF0D802EB4708002192
:1061C0005FFA88F8CDE9031167B95AB1A16891F86F
:1061D0007800850706D5086C800003D4086C40F071
:1061E0000050086404EB88064FF0000947EAC2112A
:1061F000756907EB021701224FEA881825F01F0581
:10620000009102FA07F7002DC8D0756925F01F0527
:106210002A465AB15168090602D4516808046DD55E
:1062200051680906BAD452681204B7D5002DB5D00A
:1062300069680806E7D4039949B9A968A88B21F4CD
:106240007F61C0F30B0021F00F01014303916868E7
:10625000E969C0F30E40C1F31231091A04980144F0
:10626000706B0491716981424CD1C6F8149001227F
:10627000C6F83490A16841448A60C1F80C906968FE
:10628000090403D4716931F01F020CD1019303A9F1
:10629000009B8DF815908DF81430206800F066FA98
:1062A000019BCDE903992169C5F80490296094F810
:1062B00054102561013184F85410716931F01F01C7
:1062C0003FF46CAF48680D460206AFD56268C2F86D
:1062D000B071D2F8B8010742A8D1D2F8B001074294
:1062E000FBD1D2F8B80117EA000E9FD1A068404454
:1062F0008160C0F80CE0C2F8B07197E7126822F034
:106300001F0286E709687161B9E72DE9F3470024A8
:1063100005468A46174606210DF1030200681E460F
:106320008DF8034000F0FBFA9DF80330012B36D8BE
:106330009AF8009005F10C0819F01F090FD1424698
:106340000421286800F0EBFAAB8903F00303AB816A
:1063500002233360C7F8008002B0BDE8F087B9F1CE
:10636000010F04D10223AC8120463360F2E7B9F17A
:10637000020F12D1BAF8043001AA052128688DF85D
:106380000430ADF8064000F0CAFABDF8063003F05C
:106390000303AB81C6F80090DCE70520DAE70520AF
:1063A000DAE72DE9F04385B01E460023B1F80280FC
:1063B00004460D46174606210DF1030200688DF8CC
:1063C000033000F0ACFA9DF803304FEA1829022B95
:1063D00028D8EB88B9F1010F02930BD101AA0B2148
:1063E000206800F023FD019B3B60029B336005B0F9
:1063F000BDE8F083B9F1020F5FFA89F35FFA88F81C
:1064000004D101AA0C218DF80C80E9E7032B07D1F8
:10641000AB8801AA0D218DF80E80ADF80C30DFE7B6
:106420000520E0E70520E2E773B5002604460D46A7
:106430000DF10702062100688DF8076000F06FFA81
:106440009DF80730032B0CD0022B18D86B880DF168
:10645000070207218DF80730206800F081FA02B0AA
:1064600070BD32460721206800F07AFA0028F6D184
:1064700001230DF1070206218DF80730ECE7052016
:10648000EDE7002337B505460C460DF1060206215F
:1064900000688DF806308DF8073000F040FA9DF85E
:1064A0000630012B02D9052003B030BD6378032BE1
:1064B00004BF01238DF80730237813F01F0309D19F
:1064C0006388012BEFD10DF107021421286800F039
:1064D000ADFCE9E7022BE6D16388002BE3D1A1886C
:1064E0000B0706D19DF80730C9B2286853B100F0F8
:1064F000F6F99DF80730221D286833B10521FCF715
:106500003DFED1E700F0FBF9F3E70621F7E7F7B529
:106510001E46002304460D46174606210DF10702CC
:1065200000688DF8073000F0FAF99DF807306BB974
:10653000AB8825460821206825F80C3F2A4600F044
:10654000EEF902233D60336003B0F0BD0520FBE7A8
:10655000002337B504460D460DF1070206210068F9
:106560008DF8073000F0DBF99DF8073093B9AA8861
:106570000421AB782546206843EA022325F80C3F26
:106580002A46FCF7FBFD2A460A21206800F04EFC53
:1065900003B030BD0520FBE7F7B51F4600230446D6
:1065A0000D46164606210DF1070200688DF80730EA
:1065B00000F0B5F99DF807306BB9012304F10C0226
:1065C00016213B60AB8832601B022068A38100F07B
:1065D0002DFC03B0F0BD0520FBE773B51E4600237C
:1065E0000446154606210DF1070200688DF80730B4
:1065F00000F095F99DF80730012B0AD8012304F12A
:106600000C02152133602A60206800F00FFC02B0F4
:1066100070BD0520FBE77FB5002604460D460DF151
:106620000F02062100688DF80F6000F078F99DF8E0
:106630000F30012B1FD80DF10F02062120688DF8B5
:106640000F6000F08DF96B8843B901230DF10F0243
:10665000062120688DF80F3000F082F9AA1C032172
:1066600020680192FCF78AFD019A0921206800F058
:10667000DDFB04B070BD0520FBE7052A70B50546BB
:106680000C46DDE9040113D1227812F0600F0DD021
:1066900012060BD4E288002A08BF0123DB0128463A
:1066A00003F08001BDE8704000F019B90123F5E75F
:1066B0000A68E3889A420268284688BF0B600B6824
:1066C000002100F0C4F858B994F90030002B07DA23
:1066D0000346024601462846BDE8704000F0BDB8BA
:1066E00070BD20B1C36823B15B698068184703207F
:1066F000704706207047F0B585B00C460546CDE9D9
:10670000003268B3C16869B3E6090C2746EA44065B
:10671000F6B207FB0607397F31BB03A800F0CDFEB8
:1067200001210398397700F0CDFE14F0800FE9685D
:10673000A86814BF8F68CF682146DDE90032B847EA
:10674000044650B103A800F0B8FE0C20002300FB63
:10675000065503982B7700F0B5FE204605B0F0BD36
:106760000324FAE70624F8E70224F6E730B50446E6
:1067700085B000294AD0002848D00369002B47D0B3
:106780000A7A102A1FD1012300220E21002580F849
:106790007730FFF7A6FF022304F1600284F87450FB
:1067A00084F8763023461D77C3E905550C339A42A9
:1067B000F9D123690022012120469847002084F85E
:1067C000775005B030BD12F00C0021D1530003F01A
:1067D0001E0343EAD2130C2202FB03425569BDB1EA
:1067E0000D6801954D68497A02958DF80C1059B1E4
:1067F000207784F828000C2201A9204602FB0343DD
:10680000D3E90552A847DCE71177F4E70320D8E77E
:106810000120D6E700221146FFF763BF37B50446D3
:1068200098B1C36823B15B68806898470023E36030
:10683000002501A800F041FE0198A56084F875507C
:1068400000F040FE284603B030BD0320FBE701F016
:106850000F0141F08001FFF74EBF01F00F01FFF77C
:106860004ABFF0B4B8B1C9B1C2B18D7815F00C0609
:1068700014D16C000C2704F01E0444EAD5141568EA
:10688000526807FB04035D619A610A461E77022184
:10689000F0BCFFF726BF0320F0BC70470420FBE7E5
:1068A00037B504468DF80710A8B1CDB20DF1070237
:1068B0000321FFF716FF15F00C010ED16A000C231F
:1068C00002F01E0242EAD51203FB0243C3E905119E
:1068D000197703B030BD0320FBE70420F9E711F07E
:1068E0000C0F07B58DF8071007D10DF10702042131
:1068F000FFF7F7FE03B05DF804FB0420FAE711F0A0
:106900000C0F07B58DF8071007D10DF1070205210F
:10691000FFF7E7FE03B05DF804FB0420FAE7DAB105
:10692000023906291AD8DFE801F004071113090E0D
:1069300015000F21FFF7D5BE1021FBE790F8763048
:1069400000201370704790F87430F9E70621F1E7E2
:106950000721EFE70921EDE7042070470120704788
:1069600003390B292BD8DFE801F0062A2A090F2A60
:106970002A2628222A241121FFF7B3BEFAB1137860
:1069800080F876300020704790F87630032B0AD0DC
:10699000AAB11378142100F1740280F87430032333
:1069A00080F87630E8E700F174020821E4E70A2174
:1069B000E2E70B21E0E70C21DEE70D21DCE7012017
:1069C000704710464AB1002382F86230536833B1F1
:1069D0001B6823B10A460321184703207047012092
:1069E000704710464AB1002382F82A30536833B109
:1069F0001B6823B10A460121184703207047012074
:106A0000704710464AB1002382F84630536833B1CC
:106A10001B6823B10A460221184703207047012052
:106A20007047836870B5044623B3C36813B3002569
:106A300001200626A3681A79954209D30025062667
:106A4000E3681A7995420CD30023C4E9023370BD80
:106A50009A6806FB05F320680135D15CFFF720FF3B
:106A6000E8E79A6806FB05F320680135D15CFFF77B
:106A700017FFE5E70120EAE72DE9FF470446164640
:106A8000002A00F07481002800F07181C9B2013938
:106A900005290AD8DFE811F00F0106000B002000DD
:106AA00033007600002380F86430012542E043681B
:106AB000002BFAD0127890F864309A42F5D0FFF7A4
:106AC000B0FF337884F86430002384F866302046C1
:106AD000FCF7D6F905462DE04368002BE5D0158874
:106AE00090F86530B3EB152FDFD1EDB290F866303A
:106AF000AB42DAD0FFF795FF84F86650E7E74368CA
:106B0000002BD2D08368002BCFD0C368002BCCD011
:106B1000012500274FF00608A946A3681A79BA4252
:106B20000CD800274FF006084FF00109E3681A79E6
:106B3000BA4213D8284604B0BDE8F087996808FB2C
:106B400007F33278CB5C9A4206D184F860902068D3
:106B50003178FFF7C4FE05460137DEE7996808FB88
:106B600007F33278CB5C93420AD1DB09206814BF6B
:106B700084F8283084F844903178FFF7B0FE054659
:106B80000137D3E74368002B8FD08368002B8CD06C
:106B9000C368002B89D0002701254FF006094FF06C
:106BA000FF3AB846A3681A79BA4238D84FF00008BD
:106BB0004FF0060A4FF0FF394746E3681A7942451D
:106BC000B8D999680AFB08F33278C95C914223D19D
:106BD0002068FFF794FE33780546DB094CD094F823
:106BE0002830CBB1226A84F82870511C14D0636A13
:106BF00094F829102068FFF72AFE054650B1236A51
:106C00002246694620680093636A8DF808700193F4
:106C1000FFF7E7FEC4E9089708F10108CDE7996896
:106C200009FB07F33278C95C914223D12068FFF752
:106C300066FE33780546DB091CD094F86030CBB192
:106C4000A26D84F86080501C14D0E36D94F861103C
:106C50002068FFF7FCFD054650B1A36D224669464A
:106C600020680093E36D8DF808800193FFF7B9FE6B
:106C7000C4E916A8013795E794F84430002BCBD02F
:106C8000E26B84F84470531CC6D0236C94F8451012
:106C90002068FFF7E2FD054650B1E36B22466946E6
:106CA00020680093236C8DF808700193FFF7A9FE0C
:106CB000C4E90F97B0E7136890F865001A799988CE
:106CC00090427FF4F2AE1A7802F06002202A7FF43C
:106CD000ECAE321DADF80810009206F108020192E8
:106CE0005A88ADF80A20327B8DF80C205B78042B93
:106CF0000BD9203BDAB2032A01D905251AE7032B69
:106D0000FBD8DFE803F025202A2F013B6268032B24
:106D100003D8DFE803F0080C1014136804216A4656
:106D200020469847D6E6136805216A46F8E71368B7
:106D300006216A46F4E7136807216A46F0E71368FC
:106D400008216A46ECE763686A4609211B68E7E7A1
:106D500063686A460A211B68E2E763686A460B219A
:106D60001B68DDE763686A460C211B68D8E70325CA
:106D7000E0E610B5044698B1006900F0B4FBE06AA3
:106D800000F0B1FBA06C00F0AEFB2046FFF749FE1F
:106D90000023C4E9003384F8643084F8663010BD01
:106DA0000320FCE738B5F0B190F829408C420CD1B3
:106DB00000F11004A57E012D19D00125A576257EB0
:106DC00055B10020C4E9042338BD90F861408C42DD
:106DD0000BD100F14804EDE70068FFF738FD00280B
:106DE000F2D0A576F0E70320EEE70120ECE70220E1
:106DF000EAE7F8B50446A8B190F84600012813D098
:106E0000012094F8447084F846001FB10020C4E9C2
:106E10000F23F8BD2068FFF720FD0028F9D084F883
:106E20004670F6E70320F4E70220F2E773B50D465B
:106E300001A904461646FCF739F988B9012D08D195
:106E400001992046FBF794FF019A02212046FCF7A6
:106E500095F9019B3246294620465B685B68984756
:106E600002B070BD1FB5019103A9FCF753F928B911
:106E7000039B0221019A1868FFF751FD05B05DF8E8
:106E800004FB08B5FBF76DFA08BD08B5FBF769FA16
:106E900008BD08B5FBF765FA08BD08B5FBF761FA50
:106EA00008BD08B5FBF75DFA08BD08B5FBF759FA50
:106EB00008BD08B5FBF755FA08BD08B5FBF751FA50
:106EC00008BD08B5FBF74DFA08BD08B5FBF749FA50
:106ED00008BD08B5FBF745FA08BD08B5FBF741FA50
:106EE00008BD08B5FBF73DFA08BD08B5FBF739FA50
:106EF00008BD08B5FBF735FA08BD08B5FBF731FA50
:106F000008BD08B5FBF72DFA08BD08B5FBF729FA4F
:106F100008BD08B5FBF725FA08BD08B5FBF721FA4F
:106F200008BD08B5FCF768FF08BD08B5FCF774FF9D
:106F300008BD08B5FCF780FF08BD08B5FCF78CFF5D
:106F400008BD08B5FCF798FF08BD08B5FCF7A4FF1D
:106F500008BD08B5FCF7B0FF08BD08B5FCF7BCFFDD
:106F600008BD08B5FBF7FDF908BD08B5FBF7F9F951
:106F700008BD08B5FBF7F5F908BD08B5FBF7F1F951
:106F800008BD08B5FBF7EDF908BD08B5FBF7E9F951
:106F900008BD08B5FBF7E5F908BD08B5FBF7E1F951
:106FA00008BD08B5FBF7DDF908BD08B5FBF7D9F951
:106FB00008BD08B5FBF7D5F908BD08B5FBF7D1F951
:106FC00008BD08B5FBF7CDF908BD08B5FBF7C9F951
:106FD00008BD08B5FBF7C5F908BD08B5FBF7C1F951
:106FE00008BD08B5FBF7BDF908BD08B5FBF7B9F951
:106FF00008BD08B5FBF7B5F908BD08B5FBF7B1F951
:1070000008BD08B5FBF7ADF908BD08B5FBF7A9F950
:1070100008BD08B5FBF7A5F908BD08B5FBF7A1F950
:1070200008BD08B5FBF79DF908BD08B5FBF799F950
:1070300008BD08B5FBF795F908BD08B5FBF791F950
:1070400008BD08B5FBF78DF908BD08B5FBF789F950
:1070500008BD08B5FBF785F908BD08B5FBF781F950
:1070600008BD08B5FBF77DF908BD08B5FBF779F950
:1070700008BD08B5FBF775F908BD08B5FBF771F950
:1070800008BD08B5FBF76DF908BD08B5FBF769F950
:1070900008BD08B5FBF765F908BD08B5FBF761F950
:1070A00008BD08B5FBF75DF908BD08B5FBF759F950
:1070B00008BD08B5FBF755F908BD08B5FBF751F950
:1070C00008BD08B5FBF74DF908BD08B5FBF749F950
:1070D00008BD08B5FBF745F908BD08B5FBF741F950
:1070E00008BD08B5FBF73DF908BD08B5FBF739F950
:1070F00008BD08B5FBF735F908BD08B5FBF731F950
:1071000008BD08B5FBF72DF908BD08B5FBF729F94F
:1071100008BD08B5FBF725F908BD08B5FBF721F94F
:1071200008BD08B5FBF71DF908BD08B5FBF719F94F
:1071300008BD08B5FBF715F908BD08B5FBF711F94F
:1071400008BD08B5FBF70DF908BD08B5FBF709F94F
:1071500008BD08B5FBF705F908BD08B5FBF701F94F
:1071600008BD08B5FBF7FDF808BD08B5FBF7F9F851
:1071700008BD08B5FBF7F5F808BD08B5FBF7F1F851
:1071800008BD08B5FBF7EDF808BD08B5FBF7E9F851
:1071900008BD08B5FBF7E5F808BD08B5FBF7E1F851
:1071A00008BD08B5FBF7DDF808BD08B5FBF7D9F851
:1071B00008BD08B5FBF7D5F808BD08B5FBF7D1F851
:1071C00008BD08B5FBF7CDF808BD08B5FBF7C9F851
:1071D00008BD08B5FBF7C5F808BD08B5FBF7C1F851
:1071E00008BD08B5FBF7BDF808BD08B5FBF7B9F851
:1071F00008BD08B5FBF7B5F808BD08B5FBF7B1F851
:1072000008BD08B5FBF7ADF808BD08B5FBF7A9F850
:1072100008BD08B5FBF7A5F808BD08B5FBF7A1F850
:1072200008BD08B5FBF79DF808BD08B5FBF799F850
:1072300008BD08B5FBF795F808BD08B5FBF791F850
:1072400008BD08B5FBF78DF808BD08B5FBF789F850
:1072500008BD08B5FBF785F808BD08B5FBF781F850
:1072600008BD08B5FBF77DF808BD08B5FBF779F850
:1072700008BD08B5FBF775F808BD08B5FBF771F850
:1072800008BD08B5FBF76DF808BD08B5FBF769F850
:1072900008BD08B5FBF765F808BD08B5FBF761F850
:1072A00008BD08B5FBF75DF808BD08B5FBF759F850
:1072B00008BD08B5FBF755F808BD08B5FBF751F850
:1072C00008BD08B5FBF74DF808BD08B5FBF749F850
:1072D00008BD08B5FBF745F808BD08B5FBF741F850
:1072E00008BD08B5FBF73DF808BD08B5FBF739F850
:1072F00008BD08B5FBF735F808BD08B5FBF731F850
:1073000008BD08B5FBF72DF808BD08B5FBF729F84F
:1073100008BD08B5FBF725F808BD08B5FBF721F84F
:1073200008BD08B5FBF71DF808BD08B5FBF719F84F
:1073300008BD08B5FBF715F808BD08B5FBF711F84F
:1073400008BD08B5FBF70DF808BD08B5FBF709F84F
:1073500008BD08B5FBF705F808BD08B5FBF701F84F
:1073600008BD04207146084202D0EFF3098001E015
:10737000EFF3088081690A884BF6AB639A4200D02C
:10738000FEE702318161202101607047FCF748B9B6
:1073900008B5FCF7BDFEFDF731FBFDF719F800F06D
:1073A000A4F8FCF76BF9FCF799F9FCE7142200212B
:1073B00010B5044600F0ACF800234FF4E132C4E904
:1073C0000233C4E90023238210BD0A44914204D150
:1073D00043695B02FCD50020704743691B02FCD562
:1073E00011F8013BC361F1E7704738B50D46102233
:1073F0000021044600F08CF82B78012B237306D172
:10740000696804F10800BDE8384000F038B843F27C
:10741000215038BD38B50D460446042200212846C7
:1074200000F076F8EFF3108272B6636801336360A0
:1074300082F3108800202C6038BD70B506460D46DA
:10744000EFF3108372B6046824B183F3108843F21B
:10745000225070BD016083F3108804222146284623
:1074600000F056F820462E60F3E70068037B012BFE
:1074700002D1083000F01FB843F2215070471FB509
:10748000CA7A4B688DF80A200A7B8DF80B200A68AF
:10749000CDE900230B89ADF808308B7A69468DF869
:1074A0000C30FCF7C7FD43F22153002818BF1846E3
:1074B00005B05DF804FBFCF7F5BDEFF3108372B681
:1074C0000360704780F3108870470C22002108B5D4
:1074D00000F01EF8002008BD002343720372C0E9CB
:1074E000003318467047FFF7F0BF10B5FCF7E6FD14
:1074F000012203464FF4E1311046BDE81040FAF78F
:1075000059BF08B5FDF702FBBDE80840FFF740BFD3
:1075100000F08DBAA8B14FF0805340F80C3C50F801
:10752000042C72B11368B3F1805F0AD150F8083CA3
:10753000516803330B4440F8083C936840F8043C1E
:10754000EDE770470020704770B5C468A50708D004
:10755000B2F5007F11D0B2F5806F04D0B2F5807F14
:107560000BD0012008E000F1240101232243016136
:107570000160C361C260002070BD5E1E6FF07F4578
:10758000AE42F3D3EDE7421C10B58307044616D193
:10759000234654F8041BA1F1013020EA010010F049
:1075A000803FF5D011F0FF0F11D011F47F4F0CD0B8
:1075B00011F47F0F14BF23460333981A04E010F828
:1075C000013B002BE1D1801A10BD0233F5E70133F6
:1075D000F3E7C368826923F0200310B5C360044653
:1075E000836A9A420ED000F0E8F8E36823F440532F
:1075F00023F0100343F01003E360A36AA36123693F
:10760000E3622360E36823F4804323F04003E360F4
:1076100010BDCB6823F4002270B50C46CA609906F1
:10762000054602D52046FFF7D4FFD4E902365A1C9E
:1076300010DAB0050ED4C3F1FF2346F4903603F5FB
:107640007F03E660FE33A36023685A1C22601D702E
:10765000E8B270BD41F28A023240022A07D000230C
:1076600046F08006A360E6604FF0FF30F1E74AF293
:1076700010033340B3F5004F0AD100212046FEF736
:1076800097F9E368990602D52046FFF7A2FFE6685E
:1076900046F4903316F4706FE3600ED1606900F029
:1076A000E6F900B372051ED504F1240323612360BB
:1076B0000123E36146F49233E36013F4106F216811
:1076C000266926D0E36A99422CBFC6EB0101C6EBBE
:1076D0000301B9B9731CE3622360E3695A1E236393
:1076E000A2603570B4E74FF48070FDF7FFF94FF4F6
:1076F0008073E268E36146F4943320611A432060AA
:10770000E260DAE722463046FEF7FAF80028E1D0D8
:10771000AAE74A1CEDB222600D70E26A216891422C
:107720002CBFC6EB0101C6EB0201E2695B052263D7
:1077300003D40A2D01D08A4209DC002322463046B8
:10774000E6622660A360FEF7DBF800288CD12846AD
:107750007FE770B50D4606461046144600F056F811
:107760002B78722B17D0772B18D0612B23D10823BD
:1077700048F2020215F8011F2B2912D0622915D0F8
:107780001B07E260666104D5022200212046FEF755
:107790000FF9204670BD00230122EBE704230222EB
:1077A000E8E742F0030243F00203E3E742F0040299
:1077B00043F00103DEE70024EBE738B50168044637
:1077C0000569C36AC06820F40022E26000F082020A
:1077D000022A02D04FF0FF3038BD10F48030FBD0C9
:1077E000994238BF19468D4208D1E3680020E5620E
:1077F00023F480332560A060E360EDE72246491B57
:107800002846FEF77DF80028EFD0E3E7F0B5C4681E
:1078100089B00546A10722D0220718D4D0E9046711
:10782000FEF7A4F8384600F01CF9230502D53046CF
:10783000FFF770FEA40DA40514F1A54F07D1202277
:10784000296A684600F01CF9684600F00BF83C22F3
